:020000040800F2
:1000000040450020F136000845010008470100087E
:100010004B0100084F0100085301000800000000D8
:100020000000000000000000000000005701000870
:1000300059010008000000005B0100085D01000894
:100040000B3700080B3700080B3700080B37000888
:100050000B3700080B3700080B3700080B37000878
:100060000B3700080B3700080B3700080B37000868
:100070000B3700080B3700080B3700080B37000858
:100080000B3700080B3700080B3700080B37000848
:100090000B3700080B3700080B3700080B37000838
:1000A0000B3700080B3700080B3700080B37000828
:1000B0000B3700080B3700080B3700080B37000818
:1000C0000B3700080B3700080B3700080B37000808
:1000D0000B370008CB3800080B3700080B37000837
:1000E0005F0100080B3700080B3700080B370008CA
:1000F0000B3700080B3700080B3700080B370008D8
:100100000B3700080B370008F10100080B37000817
:100110000B3700080B3700080B3700080B370008B7
:100120000B3700080B3700080B3700080B370008A7
:10013000DFF80CD004F03AF800480047F90E000848
:1001400040450020704700BFFEE700BFFEE700BF4C
:10015000FEE700BFFEE7704770477047704710B575
:100160004FF4006001F060F9002840D04FF40061C6
:10017000254801F077FAA8B92448007801280DD164
:100180004FF0000021490870214802F03FFF21494B
:10019000088000211E4802F010FC03E000211C48EA
:1001A00002F00BFC4FF40061174801F05BFAB0B1AC
:1001B0004FF00100154908704FF000001549088004
:1001C0001548008800F10100134908804FF0000134
:1001D0000F4802F0F6FE01210D4802F0EEFB4FF44D
:1001E000006001F01EF94FF4006001F030F910BD1D
:1001F00010B50121064802F01FFF18B10121044883
:1002000002F02EFF10BD0000000801400000002099
:10021000000C0040300000203200002070B5044681
:100220000D46E1B2F84803F08FF800BFF6480088A9
:1002300010F0800FFAD0204670BD00B585B00121C6
:10024000480501F0C2FE0121082001F0AFFE4FF089
:10025000C000ADF800004FF003008DF802004FF031
:100260001C008DF803006946E84801F05FF9E84892
:1002700001F0D2FA4FF00000ADF808004BF6FF7025
:10028000ADF80A004FF03000ADF80C004FF480607C
:10029000ADF80E004FF48040ADF81000DD4801903D
:1002A0004FF00101DA4801F05EFB01A9D84801F0E6
:1002B000CCFA0121D64801F097FBD7A003F088FFC4
:1002C00005B000BD00B585B00121880501F07DFEB7
:1002D0000121082001F06AFE4FF44060ADF80000F3
:1002E0004FF003008DF802004FF01C008DF8030062
:1002F0006946C64801F01AF9CE4801F08DFA4FF070
:100300000000ADF808004BF6FF70ADF80A004FF0A2
:100310003000ADF80C004FF48060ADF80E004FF4E3
:100320008040ADF81000BB4801904FF00101C1487A
:1003300001F019FB01A9BF4801F087FA0121BD486E
:1003400001F052FBBCA003F043FF05B000BD08B5AF
:100350000121082001F02AFE0121480501F035FEA7
:100360004FF0C000ADF800004FF003008DF8020020
:100370004FF018008DF803006946A44801F0D6F844
:1003800008BD1FB54FF00000ADF804004BF6FF703C
:10039000ADF806004FF03000ADF808004FF4806073
:1003A000ADF80A004FF48040ADF80C0044F6206030
:1003B00000904FF00101964801F0D5FA6946944843
:1003C00001F043FA1FBD08B50121082001F0EEFD40
:1003D0000121880501F0F9FD4FF44060ADF80000FF
:1003E0004FF003008DF802004FF018008DF8030065
:1003F0006946864801F09AF808BD1FB54FF0000025
:10040000ADF804004BF6FF70ADF806004FF0300079
:10041000ADF808004FF48060ADF80A004FF480405A
:10042000ADF80C007B4800904FF00101814801F0CD
:100430009AFA69467F4801F008FA1FBD10B503F02B
:100440002DFA00F0F5FD482003F064F910BD2DE908
:10045000FC4706464FF000077E49086803F0E4FCBD
:1004600004460D467C49086803F0DEFC804642469F
:100470000B467AA0CDE9004503F0AAFE754951F874
:10048000360003F0D1FC04460D46734951F836009E
:1004900003F0CAFC804642460B4677A0CDE90045F2
:1004A00003F096FE6C4A11686A4A52F8360003F06F
:1004B00075FA0446674A1168674A52F8360003F035
:1004C0006DFA0546214603F013FD37D2614A1168E3
:1004D000614A52F8360003F061FA04465E4A116838
:1004E0005C4A52F8360003F059FA0546214603F0FB
:1004F0008BFA07466549384603F050FA804603F008
:1005000093FC044622460B4661A003F061FE394687
:100510004FF07E5003F03CFA82465C4903F03EFA0D
:100520008146604903F0E2F9804603F07DFC044611
:1005300022460B465CA003F04BFE02E05FA003F0F6
:1005400047FEBDE8FC872DE9F04105460F464FF018
:100550000A04264655F8348000BF0BE055F83410E5
:10056000404603F0BBFC02D255F83480264604F125
:10057000010084B2BC42F1DB314654A003F028FEF6
:100580003046BDE8F0810FB47CB504460A9908985E
:1005900003F004FA05460999079803F0FFF90646A7
:1005A000294603F0F5F90090DDE9080103F0F6F9BA
:1005B00005460A99079803F0F1F90646294603F023
:1005C00095F90190DDE90001C4E900017CBC5DF80A
:1005D00014FB2DE9FC4104460D46CDE90045019888
:1005E00010F0004F7DD02046294603F0FEFB8046E8
:1005F00003F0CFFB07464FF07E5103F0C9F90646E2
:1006000003F012FCBDE8FC8100380140000C014001
:1006100000540040A0860100493243315F436F6EB1
:1006200066696775726174696F6E2D2D2D2D0A0DC7
:100630000000000000580040493243325F436F6EB3
:1006400066696775726174696F6E2D2D2D2D0A0DA7
:1006500000000000BC2000203C0000200D0A207A91
:1006600068696C69752073313D25662C73323D25B0
:1006700066200D0A000000000D0A2073313D25663A
:100680002C73323D2566200D0A0000000000C84290
:100690000D0A737030325F6E756D20203A2025662A
:1006A0000D0A0000000048420D0AD1AAD1F5BAACEB
:1006B000C1BFCEAA3A2025660D0A00000D0A20D13E
:1006C000CFD6D8C8B1D1F521200D0A006D61785F71
:1006D0006E756D5F696E6465783D25640D0A000076
:1006E000FFE72046294603F080FB074603F051FB55
:1006F000064603F099FBBDE8FC812DE9FC5F064648
:100700000F4614461D464FF0000213462046294668
:1007100003F0A0FB03D100200146BDE8FC9F224668
:100720002B463046394603F0C5FA8246FFF751FFA3
:10073000CDE9000122462B46DDE9000103F04AFA2B
:10074000824632463B4603F042FA804689464FF0E5
:10075000000213463046394603F07CFB02D24FF0CC
:10076000010A01E04FF0000A002213462046294604
:1007700003F070FB01D2012000E00020824507D089
:1007800022462B464046494603F01EFA80468946DB
:1007900040464946C1E72DE9F04F93B004460D4667
:1007A0004FF0000B5A4613462046294603F052FBF1
:1007B00003D24FF0010B85F00045FE4AFE4B204668
:1007C0002946FFF79AFF04460D46FA4AFB4B20469E
:1007D000294603F053FB10D2BBF1000F02D14FF0BA
:1007E000010001E04FF000008346F24AF34B20463F
:1007F000294603F0E9F904460D46EE4AF04B20463F
:10080000294603F03BFB07D2EA4AEC4B2046294637
:1008100003F0DDF904460D46EA4AEB4B2046294633
:1008200003F048FACDE90E0103F0DFFA82465046A4
:1008300003F0BDFAE34AE44BCDE90C0103F0CAF939
:1008400022462B46CDE90E0103F0C1F906460F46BC
:10085000DC4ADE4B3046394603F010FB09D20AF180
:10086000010AD84AD84B3046394603F0ADF906465E
:100870000F46D74800EBCA00D0E90089CAF16400EE
:10088000D34901EBC00003C8CDE9100132463B4615
:100890003046394603F09EF932463B46CDE9040125
:1008A00003F098F932463B46CDE9060103F092F990
:1008B00042464B46CDE9080103F08CF90022C54BB6
:1008C000CDE90A0103F0F6F932463B46CDE90E01C7
:1008D0003046394603F07EF932463B46CDE9020107
:1008E00003F078F9CDE90401DDE9102303F072F992
:1008F0000022B94BCDE9060103F0DCF932463B4654
:10090000CDE90A013046394603F064F942464B46C8
:10091000CDE9000103F05EF900224FF08043CDE9FC
:10092000020103F0C7F9CDE9060130463946DDE999
:10093000102303F04FF942464B46CDE9020103F084
:10094000A3F8CDE90401DDE9062303F03DF9CDE983
:100950000801DDE90A2303F037F9CDE90C01DDE9EF
:100960000E2303F091F804460D46BBF1000F05D0AD
:10097000204685F0004113B0BDE8F08F204629469F
:10098000F9E72DE9F04104460D468A4A8C4B204692
:10099000294603F079F80646FFF7FDFEBDE8F08131
:1009A0002DE9F04F91B004464FF000064FF400706F
:1009B0000E9040F2FF300D904FF000051FE0B54261
:1009C0000FDA04EBC60103C9CDE9060104EBC6004A
:1009D00004EBC50206CA06C004EBC500DDE9061239
:1009E00006C00E9F06E0A6EB0706384607EBD0715F
:1009F0004FEA6107B742F6DD3E4405F101050D9867
:100A00008542DCDB4FF480600F904FF001000C90CA
:100A100003E00C9800F101000C900F9800EBD071EE
:100A200049100F910129F4D188467FE0A8F1010017
:100A30004FF0020101FA00F9484609EBD0714FEA84
:100A4000610A4FF07E500A904FF000000B90504624
:100A500003F0ADF902460B46CDE900015548574970
:100A600003F028F9CDE90201FFF78BFFCDE904017E
:100A700003F018FA0890504603F099F902460B4625
:100A8000CDE900014B484D4903F014F9CDE90201CD
:100A9000FFF781FE81F00041CDE9040103F002FA85
:100AA00009904FF000063BE035462CE005EB0A0BC1
:100AB0000B9804EBCB0C00900A9B06A8DCE9001213
:100AC000FFF761FD54F83500069902F061FF44F824
:100AD0003B0004EBC5020799506802F059FF04EB94
:100AE000CB01486054F83500069902F0FFFE44F847
:100AF000350004EBC5020799506802F0F7FE04EBDD
:100B0000C50148604D44B5F5806FCFDB0998009072
:100B10000AA8089BDDE90A12FFF735FD06F1010678
:100B2000AAF10100B042BFDA08F101080C98804533
:100B30007FF77CAF11B0BDE8F08F2DE9F04782461A
:100B40000C4617464FF000053E4600F091FAAE20E5
:100B500000F0A5FA00F0F7FA00B151E0504600F0BD
:100B60009EFA00F0F0FA00B14AE000F081FAAF20FE
:100B700000F095FA00F0E7FA00B141E03BE000F048
:100B8000BDFA804600F0FFFA00F0B8FA814600F0A6
:100B9000FAFA49EA082024F8250000F0AFFA804666
:100BA00000F0F1FA00F0AAFA8146012E16D100F009
:100BB00002FB15E0182D4454FB211940FB2109408C
:100BC000FB21F93F1A271792BF15903FBF15803FB1
:100BD000F84A0008000038400000184000F0D3FA3E
:100BE00049EA082004EB85014880A6F10100C6B25D
:100BF00005F10100C5B2002EC1D100F006FA00BF18
:100C000000F003FABDE8F08770B5044600F030FA52
:100C1000AE2000F044FA00F096FA00B118E0204649
:100C200000F03DFA00F08FFA00B111E000F020FA78
:100C3000AF2000F034FA00F086FA00B108E000F0CE
:100C40005DFA054600F0B7FA00F0DFF9284670BDFE
:100C500000F0DBF90020FAE798B04FF0000B00BF7E
:100C6000D846C24603E10020FFF7CEFF83461BF0C3
:100C7000800FF7D00F2208A90520FFF75EFF4FF085
:100C8000000600BF30E0B7480088B0F5806F28DA72
:100C900008A931F8260003F085F8B349B14A128853
:100CA00041F832004FF00000AE4A128801EBC20159
:100CB000486008A901EB8601488803F073F8AB4946
:100CC000A84A128841F832004FF00000A54A128865
:100CD00001EBC2014860A348008800F10100A1496E
:100CE000088006F1010086B20F2ECCDB9D480088FB
:100CF000B0F5806F7EDB4FF0000000BF02E000F136
:100D0000010188B22828FADB9748FFF749FE974887
:100D1000FFF746FE4FF000063AE0934A02EBC602A8
:100D20005168914A02EBC602506802F037FE054650
:100D30008D4A52F8361052F8360002F02FFE074660
:100D4000294602F0D3FD044603F0BFFE864941F870
:100D50003600864A02EBC6025168844A02EBC6029C
:100D6000506802F01BFE0546804A52F8361052F8D1
:100D7000360002F013FE0746294602F0B7FD04468E
:100D800003F0A3FE794941F8360006F1010086B26E
:100D9000B6F5806FC1DB4FF00A0739E0724951F8B0
:100DA000370003F041F804460D46384603F010F8CA
:100DB00000226F4BCDE9040102F00CFF02460B4606
:100DC0000097CDE90245CDE906016AA003F000FADB
:100DD000664951F8370003F027F8CDE90601384697
:100DE00002F0F6FF04460022614B02F0F3FECDE96B
:100DF000040100E03AE0DDE906010097CDE90201D7
:100E000063A0DDE9042303F0E3F907F1010087B2F1
:100E10003C2FC3DB3C215448FFF795FB80464FF045
:100E20003C015248FFF78FFB8246D04517D108EBB3
:100E30000A0101EBD1724FEA620240F6B83302FBBD
:100E400003F04FEAE07200EB9252C2F38F29494659
:100E500056A003F0BDF94046FFF7F9FA02E057A0AB
:100E600003F0B6F94FF000003E49088000BFFAE6F3
:100E700070B505460C4600F0FBF8AE2000F00FF907
:100E800000F061F900B111E0284600F008F900F027
:100E90005AF900B10AE0204600F001F900F053F9D8
:100EA00000B103E000F0B1F8012070BD00F0ADF832
:100EB0000020FAE710B50B210620FFF7D9FFF0213B
:100EC0000120FFF7D5FF00210846FFF7D1FF3321AE
:100ED0000920FFF7CDFF43210720FFF7C9FF0021BD
:100EE0000220FFF7C5FF00210320FFF7C1FF0F21FC
:100EF0000420FFF7BDFF10BD00BFFFF79FFAFFF70B
:100F0000D9FF37A003F064F901E0FFF7A5FEFCE785
:100F10004FF0000002E000F10101C8B21E28FADB28
:100F2000704730B502464FF0000319460C460D4697
:100F300014E04FEA41014FEA830000EB92734FEA5D
:100F400082024FF0010000EB41049C4203D8A3EB66
:100F5000040301F1010105F1010085B2102DE8DB68
:100F600088B230BD020000203C000020BC200020E0
:100F70000000A93F663D25332E336620485A2C7366
:100F8000315B2533645D203D202566200D0A00007D
:100F9000663D25332E336620485A2C73325B253349
:100FA000645D203D202566200D0A00000D0AD0C496
:100FB000C2CACEAA3A2025640D0A00000D0A20B24A
:100FC000E2C1BFCAA7B0DCA3AC2020C7EBD1B9BA3D
:100FD000C3D6D8D0C2B2E2C1BF210D0A00000000C2
:100FE0000D0A2073746D333220696E697420727536
:100FF0006E696E67200D0A004FF0000002E000F1FC
:101000000101C8B21E28FADB704710B54FF080000E
:10101000804908604FF04000A1F104010860FFF72B
:10102000EBFF4FF080007C490860FFF7E5FF10BD43
:1010300008B50121082000F0B9FF4FF003008DF83A
:1010400002004FF014008DF803004FF04000ADF89F
:1010500000006946714800F069FA4FF08000ADF871
:10106000000069466D4800F061FAFFF7CEFF08BD49
:1010700010B54FF08000684908604FF040000860EC
:10108000FFF7BAFF4FF0800062490860FFF7B4FF36
:101090004FF040005F490860FFF7AEFF10BD70B52C
:1010A00004464FF0000526E014F0800F04D04FF006
:1010B00080005949086003E04FF0800055490860FE
:1010C000FFF79AFF4FF0400053490860FFF794FF85
:1010D0004FF040004F490860072D03D14FF08000CA
:1010E0004D4908604FEA44604FEA1064FFF784FFFF
:1010F00005F10100C5B2082DD6DB70BD70B54FF00B
:10110000000425461BE04FEA44604FEA10644FF0AC
:10111000400041490860FFF76FFF3F48083800680A
:1011200010F0800F02D004F10100C4B24FF0400073
:1011300038490860FFF760FF05F10100C5B2082DCE
:10114000E1DB204670BD10B54FF0800032490860E9
:10115000FFF752FF4FF040002F490860FFF74CFFA8
:101160002D480838006810F0800F02D04FF00104BD
:1011700001E04FF000044FF0400026490860FFF7FF
:101180003BFF204610BD10B54FF08000214908609C
:10119000FFF732FF4FF040001F490860FFF72CFFB8
:1011A0004FF040001B490860FFF726FF4FF080001A
:1011B0001949086010BD10B54FF08000164908604D
:1011C000FFF71AFF4FF0400013490860FFF714FFC4
:1011D0004FF040000F490860FFF70EFF10BD70B5DB
:1011E00004460F48006810F0800F10D00C480068CB
:1011F00010F0400F0BD0FFF73BFF2046FFF74FFFEB
:10120000FFF7A1FF0546FFF700FF284670BD01204C
:10121000FCE70000140C0140100C0140000C0140E0
:10122000080C0140384940EA0101384A1160704712
:1012300070B54FF000010B464FF00F02C4784CB36D
:10124000324C246804F4E064C4F5E0644FEA1421ED
:10125000C1F1040322FA01F2447804FA03F184781C
:1012600004EA020444EA01014FEA0111284C06781D
:10127000A155047804F01F054FF0010404FA05F4A9
:1012800005784FEA65154FF0E02606EB8505C5F8B1
:1012900000410CE0047804F01F054FF0010404FA4B
:1012A00005F41C4D06784FEA661645F8264070BDD9
:1012B000194A01EA020242EA0002184B1A6070471A
:1012C00031B1174A126842EA0002154B1A6005E074
:1012D000134A126822EA0002114B1A607047042870
:1012E00008D14FF0E021096941F004014FF0E022FC
:1012F000116107E04FF0E021096921F004014FF08E
:10130000E0221161704700000000FA050CED00E0DA
:1013100000E400E080E100E080FFFF1F08ED00E056
:1013200010ED00E04FF000004A49086001F10401AF
:10133000086001F10401086001F1040108604648F9
:101340004649086070474FF0000142498279002AFF
:1013500040D00A461268036822EA03020B461A606C
:1013600001F104021268036822EA030201F1040396
:101370001A60027911440A68036842EA03020A60AB
:10138000374A1268036822EA0302354B1A6003F1F8
:1013900004021268036822EA0302324B1A6042799F
:1013A000102A0ED12E4A1268036842EA03022C4B1F
:1013B0001A602C4A1268036842EA0302294B1A6039
:1013C0000FE02449427911440A68036842EA0302A3
:1013D0000A6006E0027911440A68036822EA0302FF
:1013E0000A6070474FF00001016001714FF00C017D
:1013F00041714FF00001817170471B49096841EA52
:101400000001194A1160704701464FF00000134A6D
:1014100012680A4202D04FF0010001E04FF00000D4
:1014200070470E490860704701464FF000000246C1
:10143000084B1B6803EA0102084B1B680B4203D0F0
:1014400012B14FF0010001E04FF000007047034976
:101450000860704700040140FFFF0F0014040140C2
:10146000080401400C0401401004014010B504467A
:10147000DE48844208D10121042000F0B5FD00219E
:10148000042000F0B1FD46E0D948844208D1012192
:10149000082000F0A9FD0021082000F0A5FD3AE099
:1014A000D448844208D10121102000F09DFD002184
:1014B000102000F099FD2EE0CF48844208D1012190
:1014C000202000F091FD0021202000F08DFD22E081
:1014D000CA48844208D10121402000F085FD002146
:1014E000402000F081FD16E0C548844208D101216A
:1014F000802000F079FD0021802000F075FD0AE0D9
:10150000C048844207D10121801500F06DFD002103
:10151000A01500F069FD10BD10B50121084600F0CE
:1015200063FD0021012000F05FFD10BD2DE9F041B9
:1015300002464FF000052E4628460346044607465D
:1015400091F803C00CF00F0591F803C01CF0100FC8
:1015500003D091F802C04CEA0505B1F800C01CF0B8
:10156000FF0F35D014684FF000002EE04FF0010C53
:101570000CFA00F3B1F800C00CEA03069E4222D137
:101580004FEA80034FF00F0C0CFA03F724EA07042C
:1015900005FA03FC4CEA040491F803C0BCF1280FDF
:1015A00006D14FF0010C0CFA00FCC2F814C00AE09E
:1015B00091F803C0BCF1480F05D14FF0010C0CFAB3
:1015C00000FCC2F810C000F101000828CED314605E
:1015D000B1F800C0BCF1FF0F38DD54684FF00000D7
:1015E00031E000F1080C4FF0010808FA0CF3B1F8F3
:1015F00000C00CEA03069E4223D14FEA80034FF05D
:101600000F0C0CFA03F724EA070405FA03FC4CEA72
:10161000040491F803C0BCF1280F05D100F1080CB7
:1016200008FA0CF8C2F8148091F803C0BCF1480F16
:1016300007D100F1080C4FF0010808FA0CF8C2F8C5
:10164000108000F101000828CBD35460BDE8F08180
:101650004FF6FF7101804FF0020181704FF00401DD
:10166000C170704702464FF0000093680B4202D0F1
:101670004FF0010001E04FF000007047014688681C
:1016800080B2704702464FF00000D3680B4202D090
:101690004FF0010001E04FF0000070470146C868BC
:1016A00080B2704701617047416170470AB10161C2
:1016B00000E041617047C16070474FF4803242EAF8
:1016C000010282618161826182698269704702469A
:1016D0004FF000004C4B18684FF6807300EA03008F
:1016E00040EA021040EA0100474B18607047474942
:1016F000C8617047F0B50A464FF000031C46194612
:101700000D4600F00046B6F1004F02D13E4EF169A1
:1017100001E03D4E7168C0F3034583B200F440160A
:10172000B6F5401F08D121F07061374E766826F07B
:101730007066354F7E6017E000F48016B6F5801FA6
:1017400008D14FF0030606FA05F421EA040141F03E
:10175000706109E04FEA50564FEA061603FA06F6A2
:1017600021EA060141F070613AB14FEA50564FEA62
:10177000061603FA06F646EA010100F00046B6F145
:10178000004F02D1204EF16101E01F4E7160F0BDAB
:1017900030B54FF000024FEA81734FEA13744FF0F7
:1017A0000F0303FA04F21A4B4FEAA10453F8243052
:1017B00023EA0203164C4FEAA10544F825302346DC
:1017C0004FEAA10453F824304FEA81744FEA1474AD
:1017D00000FA04F443EA04030D4C4FEAA10544F86F
:1017E000253030BD0B4908607047000000080140FB
:1017F000000C01400010014000140140001801409D
:10180000001C014000200140000001400000204277
:1018100008000140DC00204210B50446FB48844229
:1018200009D10121480500F0EEFB00214FF4001022
:1018300000F0E9FB08E00121880500F0E4FB00214D
:101840004FF4800000F0DFFB10BD2DE9F04385B0C0
:1018500004460D464FF00006B1464FF00407DFF88E
:10186000B083A6884FF6C07006EA0006684600F00E
:1018700022FBDDF80880E748B8FBF0F01FFA80F99A
:1018800046EA0906A68020884FF6FE7100EA0100AC
:1018900020804FF00006E049286888420FD8286869
:1018A0004FEA4000B8FBF0F087B2042F01DA4FF0A6
:1018B000040746EA070609F10100208429E0E888C8
:1018C000A0F53F41FF3906D1286800EB4000B8FB86
:1018D000F0F087B209E0286800EBC00101EB0010CE
:1018E000B8FBF0F087B247F480473805000D01D10E
:1018F00047F0010747F4004040EA06064FF49670AF
:1019000009FB00F04FF47A7190FBF1F000F1010057
:101910002084A683208840F00100208026884FF68E
:10192000F53006EA0006A888698940EA010040EA25
:1019300006062680A889298940EA0100208105B091
:10194000BDE8F08341F2883101604FF000018180F1
:101950004BF6FF71C1804FF00001018141814FF4CE
:1019600080418181704721B1028842F001020280EA
:1019700005E002884FF6FE7302EA03020280704718
:1019800021B1828842F40062828005E082884FF2B1
:10199000FF7302EA03028280704721B1828842F419
:1019A0008052828005E082884EF6FF7302EA0302CD
:1019B0008280704721B1028842F48072028005E083
:1019C00002884FF6FF6302EA03020280704721B1EA
:1019D000028842F40072028005E002884FF6FF534D
:1019E00002EA03020280704721B1028842F4806259
:1019F000028005E002884FF6FF3302EA030202800C
:101A000070470A464FF0000181894FF6017301EAE1
:101A1000030102F0FE0343EA01018181704721B115
:101A2000828942F00102828105E082894FF6FE73CD
:101A300002EA03028281704721B1028842F040022B
:101A4000028005E002884FF6BF7302EA03020280BB
:101A5000704710B522B1838843EA0103838006E012
:101A600083886FEA0104A4B203EA0403838010BDF3
:101A7000018270470146088AC0B2704712B141F036
:101A8000010103E04FF6FE7301EA03010182704792
:101A900002464FF0000313460B441888704721B1EB
:101AA000028842F40042028003E00288C2F30E0280
:101AB00002807047B1F5006F04D1028842F40062E1
:101AC000028005E002884FF2FF7302EA03020280FF
:101AD0007047B1F5005F04D1028842F400520280E1
:101AE00005E002884DF6FF7302EA030202807047A8
:101AF00021B1028842F48052028005E002884EF64D
:101B0000FF7302EA030202807047B1F5006F04D14F
:101B1000028842F40062028005E002884FF2FF73FF
:101B200002EA03020280704721B1028842F02002DB
:101B3000028005E002884FF6DF7302EA03020280AA
:101B400070470146088B4FEA2020704721B1028878
:101B500042F01002028005E002884FF6EF7302EABD
:101B600003020280704721B9028842F0800202809D
:101B700005E002884FF67F7302EA03020280704795
:101B8000B1F5804F06D0828B4BF6FF7302EA030259
:101B9000828303E0828B42F480428283704770B577
:101BA00002464FF00004254623461846958A138BBB
:101BB0004FEA034345EA030626F07F4404EA0106A0
:101BC0008E4202D14FF0010001E04FF0000070BDE5
:101BD00010B501464FF00000034602468B8A0A8B7F
:101BE0004FEA024243EA020424F07F4010BD30B5C0
:101BF00003464FF00000044602461A464FEA1174AD
:101C000021F07F4154B102F114020BE00054004076
:101C100000127A0040420F00A08601004FEA1141F5
:101C200002F1180215680D4202D04FF0010001E0E8
:101C30004FF0000030BD4FF0000221F07F426FEA0C
:101C400002038382704730B502464FF0000003461E
:101C5000948801F0E06504EA154321F07F41948AFD
:101C60000C4203D013B14FF0010001E04FF000002F
:101C700030BD4FF0000221F07F426FEA0203838201
:101C800070470000F748006840F00100F54908601F
:101C900008464068F44900EA0100F24948600846F5
:101CA0000068F24900EA0100EE4908600846006851
:101CB00020F4802008600846406820F4FE00486058
:101CC0004FF41F0088607047E649096821F48031AD
:101CD000E44A11601146096821F480211160B0F5D1
:101CE000803F03D0B0F5802F0ED106E0DD490968B2
:101CF00041F48031DB4A116007E0DA49096841F4B8
:101D0000A021D84A116000E000BF00BF704710B5A5
:101D100001464FF00002134610464FEA6112012AB5
:101D200002D1D04C236806E0022A02D1CD4C236AAE
:101D300001E0CC4C636A01F01F024FF0010404FA89
:101D400002F41C4202D04FF0010001E04FF000000D
:101D500010BD70B54FF000042546264600BF312067
:101D6000FFF7D5FF064604F10104B4F5A06F01D0DA
:101D7000002EF4D03120FFF7CAFF10B14FF001055B
:101D800001E04FF00005284670BD01464FF000000D
:101D9000B44A106820F0F80040EAC10010607047B3
:101DA000B3490860704702464FF00000AD4B5868D9
:101DB00020F47C1042EA010343EA0000A94B58607A
:101DC0007047AB490866704701464FF00000A54ACE
:101DD000506820F0030040EA010050607047A148BD
:101DE000406800F00C00704701464FF000009D4A2B
:101DF000506820F0F00040EA010050607047014652
:101E00004FF00000974A506820F4E06040EA01007B
:101E10005060704701464FF00000924A506820F42D
:101E2000605040EAC1005060704731B18D4A527A2B
:101E300042EA00028B4B5A7208E08A4A527A6FEAF1
:101E40000003DBB202EA0302864B5A7270478949EB
:101E50000860704701464FF00000824A506820F445
:101E6000404040EA0100506070474FF00001824A54
:101E700011707C4A82F82010012802D004280AD16F
:101E800004E04FF001017C4A117005E04FF00501BC
:101E9000794A117000E000BF00BF704777490860C1
:101EA00070477049096A41EA00016E4A1162704741
:101EB00073490860704730B54FF000010A460C4680
:101EC0000B46684D6D6805F00C0121B1042905D061
:101ED000082927D105E06B4D056026E0694D0560B6
:101EE00023E0604D6D6805F470125E4D6D6805F479
:101EF00080344FF0020505EB924224B9624D02FB9B
:101F000005F505600DE0574D6D6815F4003F04D0F0
:101F10005D4D02FB05F5056003E05A4D02FB05F53A
:101F2000056002E0574D056000BF00BF4D4D6D6874
:101F300005F0F0014FEA1111544D6B5C056825FA6C
:101F400003F54560474D6D6805F4E0614FEA1121E6
:101F50004E4D6B5C456825FA03F58560414D6D6813
:101F600005F460514FEAD121484D6B5C456825FA74
:101F700003F5C5603B4D6D6805F440414FEA913172
:101F8000434D6B5CC568B5FBF3F5056130BD31B100
:101F9000344A526942EA0002324B5A6105E0314A42
:101FA000526922EA00022F4B5A61704731B12D4A23
:101FB000926942EA00022B4B9A6105E0294A926934
:101FC00022EA0002274B9A61704731B1254AD26953
:101FD00042EA0002234BDA6105E0224AD26922EA92
:101FE0000002204BDA61704731B11E4AD26842EAE2
:101FF00000021C4BDA6005E01A4AD26822EA0002AD
:10200000184BDA60704731B1164A126942EA000291
:10201000144B1A6105E0134A126922EA0002114BBF
:102020001A6170471B49086070471149C8647047BE
:102030000C49C87170470B48406A40F080700949EC
:102040004862704701464FF00000064A92680A4213
:1020500002D04FF0010001E04FF00000704701494D
:1020600088727047001002400000FFF8FFFFF6FE84
:1020700000004242D8004242201002408004424206
:102080003C04424200127A0000093D000400002096
:10209000140000204004424210B50446FE48844229
:1020A00008D10121C014FFF79FFF0021E014FFF7C2
:1020B0009BFFC4E0B4F1804F08D101210846FFF72F
:1020C000A2FF00210120FFF79EFFB8E0F348844201
:1020D00008D101210220FFF796FF00210220FFF71F
:1020E00092FFACE0EE48844208D101210420FFF7C2
:1020F0008AFF00210420FFF786FFA0E0E948844220
:1021000008D101210820FFF77EFF00210820FFF7FA
:102110007AFF94E0E448844208D101211020FFF7BF
:1021200072FF00211020FFF76EFF88E0DF48844235
:1021300008D101212020FFF766FF00212020FFF7B2
:1021400062FF7CE0DA48844208D101214014FFF7A5
:102150004BFF00216014FFF747FF70E0D548844231
:1021600009D10121C804FFF73FFF00214FF40020EF
:10217000FFF73AFF63E0D048844209D10121080506
:10218000FFF732FF00214FF48010FFF72DFF56E0DC
:10219000CA48844209D101214805FFF725FF0021E3
:1021A0004FF40010FFF720FF49E0C548844208D1F2
:1021B00001214020FFF727FF00214020FFF723FFE8
:1021C0003DE0C048844208D101218020FFF71BFF79
:1021D00000218020FFF717FF31E0BB48844208D17F
:1021E00001218015FFF70FFF0021A015FFF70BFF5E
:1021F00025E0B648844209D101210804FFF7F4FE26
:1022000000214FF48030FFF7EFFE18E0B048844221
:1022100009D101214804FFF7E7FE00214FF4003007
:10222000FFF7E2FE0BE0AB48844208D101218804AD
:10223000FFF7DAFE00214FF48020FFF7D5FE10BD36
:102240004FF000020288944B98420ED0984B98426F
:102250000BD0B0F1804F08D0904B984205D0904BF6
:10226000984202D08F4B984206D14FF68F7302EA04
:1022700003024B8843EA02028B4B984209D08B4BF6
:10228000984206D04FF6FF4302EA0302CB8843EAA6
:10229000020202808B8883850B8803857E4B9842DF
:1022A0000BD0834B984208D0884B984205D0884B7E
:1022B000984202D0874B984201D10B7A03864FF0A7
:1022C00001038382704770B54FF000042246134625
:1022D000058C4FF6FE7605EA06050584028C838898
:1022E000048B4FF68F7504EA05044FF6FC7504EA7B
:1022F00005040D8845EA04044FF6FD7502EA05025F
:102300000D8945EA02024D8845EA0202624DA84263
:102310000BD0674DA84208D06C4DA84205D06C4D3B
:10232000A84202D06B4DA8421BD14FF6F77502EAC6
:1023300005024D8945EA02024FF6FB7502EA0502E5
:102340008D8845EA02024FF6FF6503EA05034FF662
:10235000FF5503EA05038D8945EA0303CD8945EA64
:10236000030383800483CD888586028470BD70B5A5
:102370004FF0000422461346058C4FF6EF7605EA2F
:1023800006050584028C8388048B48F6FF7504EAF1
:1023900005044FF6FF4504EA05040D884FEA05657C
:1023A00044EA15444FF6DF7502EA05020D894FEA4B
:1023B000055542EA15424D884FEA055542EA154255
:1023C000354DA84202D03A4DA84223D14FF67F7531
:1023D00002EA05024D894FEA055542EA15424FF6D9
:1023E000BF7502EA05028D884FEA055542EA15429B
:1023F0004FF6FF3503EA05034FF2FF7503EA0503C5
:102400008D894FEA854543EA1543CD894FEA8545D5
:1024100043EA154383800483CD880587028470BD19
:1024200070B54FF0000422461346058C4FF6FF6648
:1024300005EA06050584028C8388848B4FF68F7528
:1024400004EA05044FF6FC7504EA05040D8845EA24
:1024500004044FF6FF5502EA05020D894FEA0565AF
:1024600042EA15424D884FEA056542EA15420A4D97
:10247000A84202D00E4DA84244D14FF2FF7502EAA5
:1024800005024D894FEA056542EA15424FF6FF35D0
:1024900002EA05028D881FE0002C01400004004084
:1024A00000080040000C00400010004000140040F4
:1024B00000340140004C01400050014000540140F4
:1024C00000180040001C0040002000400040014077
:1024D00000440140004801404FEA056542EA1542C8
:1024E0004EF6FF7503EA05034DF6FF7503EA050393
:1024F0008D894FEA055543EA1543CD894FEA0555C5
:1025000043EA154383808483CD888587028470BD28
:1025100070B54FF0000213461446058C4EF6FF7658
:1025200005EA06050584038C8488828B48F6FF75CE
:1025300002EA05024FF6FF4502EA05020D884FEA5E
:10254000056542EA15424DF6FF7503EA05030D895C
:102550004FEA057543EA15434D884FEA057543EA8E
:102560001543FB4DA84202D0FA4DA84208D14BF6C4
:10257000FF7504EA05048D894FEA855544EA154440
:1025800084808283CD88A0F84050038470BD828B04
:102590004FF2FF3302EA03028283828B4FEA016328
:1025A00042EA134282837047F0B50C4615464FF05D
:1025B000000211460E46078C4EF6FF7C07EA0C0718
:1025C0000784828B018C4FEA04774FEA174640F666
:1025D000FF4702EA07024FEA056742EA17424FEA5D
:1025E000037742EA1742DA4FB8420ED0D94FB842C9
:1025F0000BD0B0F1804F08D0D74FB84205D0D74F9D
:10260000B84202D0D64FB84208D14DF6FF7701EA62
:10261000070146F4805747EA010107E047F6FF57F4
:1026200001EA070144F4805747EA010182830184EB
:10263000F0BD828B4FF6F37302EA03028283828B32
:1026400042EA010282837047F0B50C4615464FF00E
:10265000000211460E46078C4FF6FF6C07EA0C0786
:102660000784828B018C4FEA04674FEA17464FF6C6
:102670000C7702EA07024FEA035745EA174747EA91
:102680000202B34FB8420ED0B24FB8420BD0B0F1F5
:10269000804F08D0B04FB84205D0B04FB84202D0FA
:1026A000AF4FB84208D14FF6FF5701EA070146F491
:1026B000807747EA010107E04FF2FF5701EA07017F
:1026C00044F4807747EA010182830184F0BD028BE4
:1026D0004FF2FF3302EA03020283028B4FEA0163E7
:1026E00042EA134202837047F0B50C4615464FF09C
:1026F000000211460E46078C4FF6EF7C07EA0C07E6
:102700000784028B018C4FEA04574FEA174640F6C4
:10271000FF4702EA07024FEA037742EA17424FEA0D
:10272000056742EA17428A4FB8420ED0894FB84235
:102730000BD0B0F1804F08D0874FB84205D0874FFB
:10274000B84202D0864FB84208D14FF6DF7701EA8F
:10275000070146F0100747EA010107E04FF65F77EF
:1027600001EA070144F0100747EA010102830184EE
:10277000F0BD028B4FF6F37302EA03020283028B71
:1027800042EA010202837047F0B50C4615464FF04D
:1027900000021146068C4FF6FE7706EA070606840D
:1027A000028B018C4FF60C7602EA06024FEA0356C2
:1027B00045EA164646EA0202654EB0420ED0654E24
:1027C000B0420BD0B0F1804F08D0634EB04205D07C
:1027D000624EB04202D0624EB04208D14FF6FD7652
:1027E00001EA060144F0010646EA010107E04FF65E
:1027F000F57601EA060144F0010646EA010102838A
:102800000184F0BD70B505460C46514885420ED096
:10281000504885420BD0B5F1804F08D04E488542D4
:1028200005D04E48854202D04D48854200D100E097
:1028300000BF208850B92389A28861882846FFF705
:10284000A3FFE1882846FFF794FF25E020880428AD
:102850000AD12389A28861882846FFF745FFE188CD
:102860002846FFF734FF17E0208808280AD123897B
:10287000A28861882846FFF7E7FEE1882846FFF72F
:10288000D8FE09E02389A28861882846FFF78CFEDC
:10289000E1882846FFF77BFE70BD2DE9F041054633
:1028A0000C464FF000064FF00107608810B94FF05A
:1028B000020601E04FF00006A088012802D14FF087
:1028C000020701E04FF001072088A0B92389A28800
:1028D00061882846FFF758FFE1882846FFF749FF3F
:1028E00023893A4631462846FFF7FEFEE18828460E
:1028F000FFF7EDFE13E02389A28861882846FFF7E1
:10290000F3FEE1882846FFF7E2FE23893A46314686
:102910002846FFF739FFE1882846FFF72AFFBDE880
:10292000F0810A884B8842EA03028B8842EA03025C
:10293000CB8842EA03020B8942EA03024B8942EA4E
:1029400003028B8942EA0302A0F84420704700008A
:10295000002C014000340140000400400008004009
:10296000000C00404FF6FF7181804FF000010180A4
:10297000C1804180017270474FF0000101804180A9
:102980008180C180018141818181C18170474FF087
:102990000001018041804FF0010181804FF0000172
:1029A000C180018170474FF000010180418081802A
:1029B000C180018141818181704721B1028842F04B
:1029C0000102028005E002884FF6FE7302EA03026C
:1029D0000280704731B1B0F8442042F40042A0F8C0
:1029E000442005E0B0F84420C2F30E02A0F84420D1
:1029F000704710B522B1838943EA0103838106E061
:102A000083896FEA0104A4B203EA0403838110BD41
:102A10008182704741EA0203A0F84830704710B540
:102A200022B1838943EA0103838106E083896FEA47
:102A30000104A4B203EA0403838110BD01894FF6A7
:102A4000F87201EA0201018170470A464FF0000165
:102A500001894FF68F7301EA030141EA0201018106
:102A6000704730B504460D4629462046FFF7EDFF76
:102A7000208940F00700208130BD2DE9F041044657
:102A80000D4616461F46602D06D13B4601223146B3
:102A90002046FFF729FE05E03B460122314620464D
:102AA000FFF772FE29462046FFF7CFFF208940F04E
:102AB00007002081BDE8F08130B50C464FF00001E1
:102AC0000189C9B24FEA036542EA154545EA0405A2
:102AD00045EA0101018130BD2DE9F04105460E4670
:102AE000174698464FF0000443463A46314628467A
:102AF000FFF7E2FF2C894FF6F87004EA000444F077
:102B000007044FF68F7004EA000444F070042C812F
:102B1000BDE8F081F0B504460D4616461F463B461B
:102B2000324629462046FFF7C7FF208940F48040FF
:102B30002081F0BD0185828270470A464FF0000176
:102B400001884FF68F7301EA030141EA0201018017
:102B50007047F0B50C4615461E464FF000010A4678
:102B60000B460189028B038C4FF6F87701EA0701C7
:102B700041EA04014FF6FC4702EA070240F201175E
:102B800042EA07024FF6DD7703EA07034FEA0657EA
:102B900045EA174747EA0303018102830384F0BD36
:102BA0000A464FF00001018B4FF68F7301EA0301D3
:102BB00041EA0201018370470A464FF00001018B90
:102BC00048F6FF7301EA03014FEA026341EA134149
:102BD000018370470A464FF00001818B4FF68F73D7
:102BE00001EA030141EA0201818370470A464FF07E
:102BF0000001818B48F6FF7301EA03014FEA02638B
:102C000041EA13418183704721B1028842F080027A
:102C1000028005E002884FF67F7302EA0302028019
:102C2000704721B1828842F00402828005E08288E8
:102C30004FF6FB7302EA03028280704721B182885B
:102C400042F00802828005E082884FF6F77302EABC
:102C500003028280704721B1828842F001028280A3
:102C600005E082884FF6FE7302EA03028280704715
:102C70000A464FF00001018B4FF6F77301EA03019A
:102C800041EA0201018370470A464FF00001018BBF
:102C90004FF2FF7301EA03014FEA026341EA134175
:102CA000018370470A464FF00001818B4FF6F7739E
:102CB00001EA030141EA0201818370470A464FF0AD
:102CC0000001818B4FF2FF7301EA03014FEA0263B7
:102CD00041EA1341818370470A464FF00001018B9E
:102CE0004FF6FB7301EA030141EA020101837047D9
:102CF0000A464FF00001018B4FF6FF3301EA030152
:102D00004FEA026341EA1341018370470A464FF0DC
:102D10000001818B4FF6FB7301EA030141EA0201D6
:102D2000818370470A464FF00001818B4FF6FF33D5
:102D300001EA03014FEA026341EA134181837047CC
:102D40000A464FF00001018B4FF67F7301EA030141
:102D500041EA0201018370470A464FF00001018BEE
:102D6000C1F30E014FEA026341EA13410183704748
:102D70000A464FF00001818B4FF67F7301EA030191
:102D800041EA0201818370470A464FF00001818BBE
:102D9000C1F30E014FEA026341EA13418183704798
:102DA0000A464FF00001018C4FF6FD7301EA030162
:102DB00041EA0201018470470A464FF00001018C8C
:102DC0004FF6F77301EA030141EA020101847047FB
:102DD0000A464FF00001018C4FF6DF7301EA030150
:102DE0004FEA025341EA1341018470470A464FF00B
:102DF0000001018C4FF67F7301EA03014FEA025391
:102E000041EA1341018470470A464FF00001018CEA
:102E10004FF6FF5301EA03014FEA026341EA13410F
:102E2000018470470A464FF00001018C4FF2FF7396
:102E300001EA03014FEA026341EA1341018470474A
:102E40000A464FF00001018C4DF6FF7301EA0301C1
:102E50004FEA027341EA13410184704730B54FF0E5
:102E600000034FF0010404FA01F4A3B2048C6FEAEA
:102E70000305ADB204EA05040484048C02FA01F5EA
:102E8000ADB244EA0504048430BD30B54FF0000310
:102E90004FF0040404FA01F4A3B2048C6FEA0305B2
:102EA000ADB204EA05040484048C02FA01F5ADB263
:102EB00044EA0504048430BD70B503464FF00000B9
:102EC0000446184600F118004FF0010505FA01F517
:102ED000ACB21D8C6FEA0406B6B205EA06051D8485
:102EE00009B108290AD100EB6100056825F07005D9
:102EF0000560056845EA020505600EE0A1F10405DC
:102F0000ADB200EB6500056825F4E0450560056895
:102F10004FEA026645EA1645056070BD21B1028898
:102F200042F00202028005E002884FF6FD7302EAD9
:102F300003020280704721B1028842F0040202803D
:102F400005E002884FF6FB7302EA03020280704735
:102F500021B1828842F08002828005E082884FF6AB
:102F60007F7302EA03028280704702884FF6F7738C
:102F700002EA03020280028842EA010202807047EC
:102F800082884FF68F7302EA03028280828842EAC7
:102F900001028280704702894FF6F87302EA030249
:102FA0000281028942EA01020281704702894FF6DA
:102FB0007F7302EA03020281028942EA010202816E
:102FC000704781847047818570478186704701878B
:102FD000704781877047A0F84010704702884FF60D
:102FE000FF4302EA03020280028842EA01020280F1
:102FF00070470146888E70470146088F704701462A
:10300000888F70470146B1F8400070470146888CB0
:1030100070470146088D704702464FF00000138A42
:103020000B4202D04FF0010001E04FF0000070476A
:103030006FEA01020282704730B502464FF000008D
:1030400003460446158A05EA0103958905EA010449
:103050001BB114B14FF0010001E04FF0000030BD92
:103060006FEA01020282704710B50446F8488442B4
:1030700009D101218803FEF7B7FF00214FF48040FA
:10308000FEF7B2FF32E0F348844209D1012148043F
:10309000FEF7B9FF00214FF40030FEF7B4FF25E042
:1030A000ED48844209D101218804FEF7ACFF0021DC
:1030B0004FF48020FEF7A7FF18E0E848844209D1CA
:1030C0000121C804FEF79FFF00214FF40020FEF706
:1030D0009AFF0BE0E248844208D101210805FEF77F
:1030E00092FF00214FF48010FEF78DFF10BD2DE9F7
:1030F000F04786B005460E464FF00004A24600BFDA
:10310000A1462746B08900B100BF2F462C8A4CF655
:10311000FF7004EA0004F08840EA04042C82AC89C1
:103120004EF6F31004EA0004B088318940EA010049
:10313000718940EA010040EA0404AC81AC8A4FF690
:10314000FF4004EA0004B08940EA0404AC8201A80C
:10315000FEF7B1FEBE48874202D1DDF810A001E0C3
:10316000DDF80CA0A88910F4004F09D00AEBCA00C2
:1031700000EB0A1031684FEA4101B0FBF1F808E0BA
:103180000AEBCA0000EB0A1031684FEA8101B0FB7C
:10319000F1F84FF06400B8FBF0F04FEA00144FEA8A
:1031A00014104FF0640101FB1089A88910F4004F3E
:1031B0000AD04FF0320000EBC900B0FBF1F000F094
:1031C000070040EA04040BE04FF0320000EB091066
:1031D0004FF06401B0FBF1F000F00F0040EA04048E
:1031E0002C8106B0BDE8F0874FF4165101604FF016
:1031F00000018180C18001814FF00C0141814FF0BD
:1032000000018181704710B502464FF00000108A1E
:103210004FF2FF0300EA03000B884C8843EA0403E3
:103220008C8843EA0403CC8843EA040343EA0000A1
:10323000108210BD4FF00001018041808180C1806B
:10324000704721B1828942F40052828105E082896F
:103250004DF6FF7302EA030282817047F0B5034620
:103260004FF00004264625462046A1F510676A3F28
:1032700000D100BF1846C1F3421401F01F064FF001
:10328000010707FA06F5012C02D100F10C0006E057
:10329000022C02D100F1100001E000F1140022B173
:1032A000076847EA0507076003E0076827EA05079C
:1032B0000760F0BD10B522B1838A43EA010383821F
:1032C00006E0838A6FEA0104A4B203EA040383825E
:1032D00010BD028A4FF6F07302EA03020282028AEC
:1032E00042EA01020282704782894FF2FF7302EACA
:1032F00003028281828942EA01028281704721B100
:10330000828942F00202828105E082894FF6FD73D4
:1033100002EA030282817047028A4FF6DF7302EAF3
:1033200003020282028A42EA01020282704721B14C
:10333000028A42F48042028205E0028A4BF6FF7361
:1033400002EA030202827047C1F3080282807047DA
:1033500001468888C0F308007047818941F0010167
:1033600081817047028BD2B20283028B42EA012232
:1033700002837047028B02F47F420283028B42EA8F
:1033800001020283704721B1828A42F020028282C8
:1033900005E0828A4FF6DF7302EA030282827047F9
:1033A00021B1828A42F01002828205E0828A4FF6C1
:1033B000EF7302EA03028282704721B1828A42F0EF
:1033C0000802828205E0828A4FF6F77302EA03025E
:1033D0008282704721B1828942F40042828103E0F7
:1033E0008289C2F30E028281704721B1828A42F43F
:1033F0000062828205E0828A4FF2FF7302EA0302D2
:1034000082827047828A4FF6FB7302EA030282824D
:10341000828A42EA01028282704721B1828A42F0A6
:103420000202828205E0828A4FF6FD7302EA0302FD
:103430008282704702464FF00000B1F5007F00D154
:1034400000BF13880B420DD04FF001000CE00000CC
:10345000003801400044004000480040004C00405B
:10346000005000404FF00000704701F40072B2F5C8
:10347000007F00D100BF6FEA01020280704770B583
:1034800002464FF0000423461D461846A1F510667B
:103490006A3E00D100BFC1F3421501F01F034FF097
:1034A000010606FA03F3012D03D1968906EA030308
:1034B00008E0022D03D1168A06EA030302E0968A89
:1034C00006EA03034FEA21244FF0010606FA04F44A
:1034D000168806EA04041BB114B14FF0010001E0A4
:1034E0004FF0000070BD10B54FF000021346A1F57B
:1034F00010646A3C00D100BF4FEA21224FF0010462
:1035000004FA02F4A3B26FEA0304048010BD0000C1
:103510004FF0000108466D4A126842F480326B4B4E
:103520001A6000BF694A126802F4003001F101011B
:1035300010B9B1F5A06FF5D1644A126812F4003FDA
:1035400002D04FF0010001E04FF00000012842D10D
:103550005F4A126842F010025D4B1A601A46126808
:1035600022F003021A601A46126842F002021A6040
:10357000564A5268554B5A601A4652685A601A4663
:10358000526842F480625A601A46526822F47C12F1
:103590005A601A46526842F4E8125A601A46126893
:1035A00042F080721A6000BF484A126812F0007F31
:1035B000FAD0464A526822F00302444B5A601A4637
:1035C000526842F002025A6000BF404A526802F05C
:1035D0000C02082AF9D1704710B5FFF799FF10BD0A
:1035E00010B53A48006840F00100384908600846C4
:1035F0004068384900EA01003449486008460068DC
:10360000354900EA0100314908600846006820F4A5
:10361000802008600846406820F4FE0048604FF4AF
:103620001F008860FFF7D8FF4FF000602B4908604B
:1036300010BD10B54FF0000108460246234B5B68F1
:1036400003F00C0121B1042906D008292CD107E090
:10365000234B244C23602BE0214B224C236027E09A
:103660001A4B5B6803F47010184B5B6803F48032EC
:103670004FF0020303EB90402AB91B4B00FB03F30E
:10368000184C23600FE0114B5B6813F4003F05D02A
:10369000154B00FB03F3134C236004E0104B00FBBD
:1036A00003F3104C236003E00D4B0E4C236000BF6E
:1036B00000BF064B5B68C3F303130C4CE15C094B82
:1036C0001B6823FA01F3074C236010BD0010024071
:1036D000002002400000FFF8FFFFF6FE08ED00E0CA
:1036E00000127A001800002000093D001C00002094
:1036F0000648804706480047FEE7FEE7FEE7FEE78C
:10370000FEE7FEE7FEE7FEE7FEE7FEE7E13500083D
:10371000310100084FF0E021096921F004014FF068
:10372000E02211614FEAE07200EB52724FEAE202CE
:10373000244B1A70194609784FF47A7201FB02F192
:10374000214A1180704701461F4A128801FB02F28C
:103750004FF0E0235A614FF000029A614FF00102EE
:103760001A6100BF4FF0E022106910F0010F02D083
:1037700010F4803FF6D04FF000024FF0E0231A61C2
:103780009A61704701460F4A127801FB02F24FF02E
:10379000E0235A614FF000029A614FF001021A6172
:1037A00000BF4FF0E022106910F0010F02D010F4BA
:1037B000803FF6D04FF000024FF0E0231A619A618B
:1037C000704700002C0000202E00002008B54FF4A8
:1037D000C060FDF727FD4FF025008DF800004FF089
:1037E00000008DF801004FF007008DF802004FF047
:1037F00001008DF803006846FDF71AFD08BD00B50D
:1038000085B001210520FEF7D1FB01218803FEF7D9
:10381000CDFB4FF40070ADF810004FF018008DF89C
:1038200013004FF003008DF8120004A92D48FDF796
:103830007DFE4FF48060ADF810004FF004008DF86D
:10384000130004A92748FDF771FE04A92548FDF7D8
:103850006DFE4FF4E13000904FF00000ADF8040031
:10386000ADF80600ADF80800ADF80C004FF00C0004
:10387000ADF80A0069461C48FFF739FC012240F206
:1038800025511948FFF7EAFC01211748FFF7D9FC39
:1038900040211548FFF7E9FD05B000BD10B5FFF761
:1038A00095FFFFF7ACFF10BD10B5044600BF8021A7
:1038B0000D48FFF7BFFD0028F9D021460A48FFF761
:1038C00043FD6420FFF75EFF10BD10B540F22551A7
:1038D0000548FFF7D4FD20B140F225510248FFF71B
:1038E00002FE10BD0008014000380140F0B480EA3B
:1038F0000102D20F4300B3EB410F02D20346084648
:1039000019464B0042D0C30DDDB2C1F3C7542C1B86
:10391000202C35DAC1F3160141F4000502B16D42E5
:10392000C4F1200605FA06F125412844B3EBD05F27
:1039300023D0C2B1012CA0EBC35009DCF0BC4FF086
:10394000004202EAC35200F50000DBB200F05BBBAC
:10395000400000F1807000EBC350A0F1807040EA9D
:10396000D170490009E0490841EAC071A0EBC35099
:1039700000F50000400800EBC350F0BC00F03ABB7B
:103980005142012303EB4101801AF6E7F0BC704776
:1039900081F00041AAE780F00040A7E780EA010239
:1039A00010B502F00042400026D04B0023D04FEA71
:1039B000106101EB1361C0F35600C3F3560340F4EA
:1039C000000043F40003A0FB0330A1F17F014FEAA4
:1039D00000401C0401D000F1010050EA134001D462
:1039E0004000491EC3B20C0604EBD010401C400836
:1039F000802B02D003E0002010BD20F00100002940
:103A000000DA0020104310BD80EA010202F00043FA
:103A100030B430F0004221F0004015D0A0B1C0F326
:103A2000C755C2F3C754C2F31601C0F31600651B95
:103A300041F4000140F400007D35814201D36D1C4A
:103A400000E04900002D02DA30BC002070474FF43E
:103A500000020024814201D3091A144352084FEA9C
:103A60004101F7D151B1814202D14FF0004105E04F
:103A700002D24FF0010101E06FF0010104EBC550EB
:103A800030BC184400F0B6BA2DE9FE4F074681EA73
:103A90000300C00F0E46019021F0004123F00044C6
:103AA000B81AA14105D23846314617461E460B4684
:103AB000024623F00040104304D13846314603B09B
:103AC000BDE8F08F350DC5F30A00C3F30A5102902B
:103AD000401A0090402868DAC3F3130040F4801BBA
:103AE0000198924620B10023D2EB030A63EB0B0B43
:103AF00000985946C0F14002504600F04AFA80460C
:103B00000C4650465946009A00F062FAC0197141BD
:103B1000EF1785EA11533B4340D0019A52B3009A04
:103B2000012A11DC0022801A4FF0004361EB05519D
:103B300003EA05538018CDE9002341F58011424680
:103B4000234600F0C9FABAE72E050025401B61EBB9
:103B50000601401941F58012001852412818A6F5B7
:103B6000001343EB020140EAD470294318EB080824
:103B7000644113E064084FEA38084FF0000244EA59
:103B8000C0744FEA0553801A61EB0301801841F5B8
:103B9000801149084FEA30008018594142462346B7
:103BA00003B0BDE8F04F00F08ABA0198012240004E
:103BB0000023D0EB020263EBE07301984FEAE0745C
:103BC000381A66EB0401EBE783F000435CE781F011
:103BD000004159E72DE9FE4F81EA030421F0004539
:103BE00004F0004423F000414FF0000A009450EA32
:103BF000050302D052EA010304D10020014603B0BC
:103C0000BDE8F08FC1F30A53C5F30A541C44A0FB6E
:103C100002B3C5F3130545F4801CC1F3130141F44D
:103C200080180CFB023300FB083EA4F2F334810A37
:103C3000930A41EA8C5143EA88530194A1FB03475C
:103C40004FEA9C2505FB03734FEA982601FB0637D4
:103C50003D05260545EA1435BBEB06016EEB050371
:103C6000850E920E45EA8C1542EA8812A5FB0206E3
:103C7000261E67EB00070C0D44EA0334A41947EB3A
:103C80001350C1F313064FF0000319464FEA0333F4
:103C900043EA165343EA0403019CE5FB0201A4F145
:103CA0000C040294009C4FEA0632CDE900A400F017
:103CB00013FAA4E72DE9F04D81EA030404F0004B68
:103CC00021F0004714464FF0000A23F0004150EA6B
:103CD000070220D054EA01021DD0C1F30A55024662
:103CE000C1F31300C7F30A56C7F3130340F480115E
:103CF00043F48013A6EB0508101BD64608F2FD38E6
:103D000073EB010002D308F1010801E092185B4156
:103D1000B8F1000F03DA00200146BDE8F08D002065
:103D20004FF48015064607460EE0B2EB040C73EB29
:103D3000010C04D3121B064363EB01032F436D08F0
:103D40004FEA300092185B4150EA050CEDD152EA7F
:103D5000030012D082EA040083EA0105284303D15C
:103D600000224FF0004308E0101B8B4102D20122D9
:103D7000002302E06FF0010253101AEB060047EB3C
:103D8000085110EB0A0041EB0B01BDE8F04D00F0CB
:103D900096B9C10F80EAE0700844CA079623002153
:103DA00000F031B996230022114600F02CB90EB56F
:103DB000C10F80EAE0700844CA07002140F2334393
:103DC0008DE80E000A460B4600F086F903B000BDF0
:103DD0000EB540F2334102910021CDE900110A46AF
:103DE0000B4600F079F903B000BD70B5C1F30A527B
:103DF00001F000450024C1F3130140F2FF3341F408
:103E000080119A4201DA002070BD40F233439A4299
:103E1000A2F2334203DC524200F0CAF800E09040C4
:103E20002C43F1D0404270BD00F0004230F0004021
:103E30000DD0C10D01F5607142EA01510022C0F3BD
:103E40001600520742EAD002400711437047002093
:103E50000146704730B5002904DB4FF00044404272
:103E600064EB0101002B04DB4FF00044524264EB91
:103E700003038B4208BF824230BD000030B50029E9
:103E800004DB4FF00044404264EB0101002B04DBF3
:103E90004FF00044524264EB0303994208BF904242
:103EA00030BD000001F0004230B421F0004150EA82
:103EB000010306D00B0DA3F56073C1F31301002BB2
:103EC00002DC30BC00207047440F44EAC104C1004A
:103ED000A01830BC00EBC35000F08CB8002801DB08
:103EE000C0F10040002901DBC1F10041814270476F
:103EF000002801DBC0F10040002901DBC1F10041D5
:103F00008842704730B50B4601460020202201242C
:103F100009E021FA02F59D4205D303FA02F5491B97
:103F200004FA02F52844151EA2F10102F1DC30BDAD
:103F30002DE9F05F0546002092469B4688460646DE
:103F4000814640241BE0284641464746224600F071
:103F50002FF852465B46801A994110D310461946F5
:103F6000224600F016F82D1A67EB01084F4622464C
:103F70000120002100F00DF817EB00094E41201E32
:103F8000A4F10104DFDC484631462A464346BDE839
:103F9000F09F202A04DB203A00FA02F1002070474B
:103FA0009140C2F1200320FA03F319439040704777
:103FB000202A04DB203A21FA02F00021704721FA7E
:103FC00002F3D040C2F120029140084319467047E5
:103FD000202A06DBCB17203A41FA02F043EAE071CF
:103FE000704741FA02F3D040C2F1200291400843E9
:103FF000194670470029A8BF7047401C490008BFF8
:1040000020F00100704710B4B0FA80FC00FA0CF008
:1040100050EA010404BF10BC704749B1CCF1200440
:1040200021FA04F411FA0CF118BF012121430843CD
:10403000A3EB0C01CB1D0106000A002BBEBF002024
:1040400010BC704700EBC35010440029A4BF10BC43
:104050007047401C490008BF20F0010010BC7047A9
:10406000F0B4002802DCF0BC00207047C0F3C75158
:10407000C0F3160040F40000CA0701D14000491EF9
:104080003F2202EB6105002211464FF4000626FA9A
:1040900001F31344D418844201D8001B1A4640008F
:1040A000491C1729F3DD5100814202D24FF0FF3144
:1040B00000E0002102EBC550F0BCFFF79BBF10B53C
:1040C000002B08DA401C41F1000192185B411A43B1
:1040D00001D120F0010010BD2DE9F04D92469B4624
:1040E00011B1B1FA81F202E0B0FA80F220329046CA
:1040F000FFF74FFF06460F4640EA0A0041EA0B0170
:1041000052465B46084303D130463946BDE8F08D40
:10411000194652EA010015D0C8F140025046FFF797
:1041200047FF04460D46504659464246FFF731FFC9
:10413000084301D0012000E00020044345EAE07577
:1041400026432F430A984FEAD625A0EB08000A30F1
:104150004FEA46534FF0000245EA47554FEAD7244D
:1041600002D500200146D1E7010550196141DDE982
:10417000084500196941BDE8F04DA0E7C1F30A52B6
:10418000C1F3130140F2FF3341F480119A4202DA85
:1041900000200146704740F233439A42A2F2334274
:1041A00002DC5242FFF704BFFFF7F3BE064C074D97
:1041B00006E0E06840F0010394E8070098471034F7
:1041C000AC42F6D3FBF7B8FF204E0008404E000883
:1041D0000FB4054B10B503A9044A029800F0C8F8C3
:1041E00010BC5DF814FB00001D0200083400002024
:1041F00002E008C8121F08C1002AFAD170477047B0
:10420000002001E001C1121F002AFBD1704700000D
:104210000149086070470000380000202DE9FF5F69
:10422000DDE90210020DDDF838B001430FD10F981F
:1042300001244AA3012807D000980F9AC0E9003151
:10424000C0E90242BDE8FF9F6FEA0B01F4E7A2F26A
:10425000FF3244F61050424315140F9801280ED037
:10426000A5EB0B00401C4FF000043D4EDFF8F4902E
:10427000B0F1000AA04605DACAF1000717E0CBF159
:104280000000F0E7074612E0F80707D02246334661
:1042900040464946FFF79EFC804689462246334603
:1042A00010461946FFF796FC04460E467F10002F75
:1042B000EAD1DDE90201BAF1000F42464B4602DACB
:1042C000FFF788FC01E0FFF7F5FC04460E460022EC
:1042D000254BFFF7D3FD03D84FF0FF30014607E031
:1042E0000022224B20463146FFF7CEFBFFF746FF68
:1042F000102409E0002C0ADB0A220023FFF718FE35
:10430000019B30321A55641E50EA0102F2D1641C3E
:10431000019AC4F1110314440F9A012A07D0012213
:10432000084301D15B450DDD00226D1C0DE0084303
:1043300003D1A3EB0B056D1E09E000204FF0110B1C
:104340000F908AE701DA00226D1E002A85D00098BE
:104350000F99C0E90231C0E9004573E73000000061
:10436000000024400000F03F0000F0430000E03F68
:104370002DE9FF4F95B006469A468946002521E271
:10438000252801D01799A6E00024F9492746761C74
:104390004FF0010803943278203A08FA02F00842FC
:1043A00002D00443761CF6E730782A2811D06FF04B
:1043B0002F023078A0F13001092916D8039944F072
:1043C000020401EB810102EB41010844761C0390D9
:1043D000EFE759F8041B0391002903DA484244F43B
:1043E0000054039044F00204761C30782E2816D135
:1043F00016F8010F44F004042A280DD06FF02F01A5
:104400003078A0F13002092A09D807EB870201EBC6
:1044100042028718761CF3E759F8047B761C307843
:104420006C280FD006DC4C2817D068280DD06A28DD
:1044300014D104E0742810D07A280FD10DE044F490
:1044400000140AE044F4801401E044F4401471784C
:10445000814202D1761C04F58014761C96F800C0C7
:10446000BCF1660F10D01ADCBCF1580F70D00CDC18
:10447000BCF1000F6DD0BCF1450FF3D0BCF1460F7D
:10448000F0D0BCF1470F24D1A4E1BCF1630F40D0C0
:10449000BCF1640F74D0BCF1650F1AD19AE1BCF184
:1044A000700F6ED00CDCBCF1670FEDD0BCF1690F62
:1044B00075D0BCF16E0F12D0BCF16F0F09D1B3E013
:1044C000BCF1730F2FD0BCF1750F76D0BCF1780F13
:1044D00074D017996046524690476D1C70E1C4F342
:1044E0000250022809D003280DD0D9F80010042862
:1044F0000DD00D6009F1040962E1D9F80010EA1746
:10450000C1E90052F6E7D9F800100D80F2E70D700E
:10451000F0E759F8041B8DF8001000208DF8010019
:10452000EB46012003E059F804BB4FF0FF30610770
:104530004FF0000102D40FE008F101018846B942B2
:1045400011DA8045F8DB1BF808100029F4D10AE0E5
:1045500060E03BE108F1010188468142FADB1BF88B
:1045600008100029F6D103985346A0EB080721460E
:104570003846179A00F091FA284400EB080506E047
:104580000DE049E01BF8010B524617999047B8F12E
:104590000108F7D2534621463846179A0DE10A2101
:1045A000C4F302524FF0000B0091022A07D059F8D1
:1045B000040BC117032A0AD00BE024E025E009F11F
:1045C000070020F00702F2E80201914605E000B280
:1045D000C117042A01D140B2C117002906DA0A46E0
:1045E0000021404261EB02012D2202E0220504D5A8
:1045F0002B228DF80420012203E0E20701D02022C3
:10460000F7E7904654E00A2100E010214FF0000B3C
:1046100000910DE0102008E010204FF0000B44F056
:1046200004040827009003E008204FF0000B0090DE
:10463000C4F30252022A05D059F8040B0021032AC0
:1046400008D009E009F1070020F00702F2E80201B2
:10465000914605E080B20021042A01D1C0B20021B8
:104660004FF00008220723D5BCF1700F28D0009B23
:1046700083F0100353EA0B0309D150EA010206D07C
:1046800030228DF804208DF805C002229046009B50
:1046900083F0080353EA0B030AD150EA010201D167
:1046A000620705D530228DF804204FF001087F1EE7
:1046B000BCF1580F09D02FA20C920CAA029211E063
:1046C00040228DF804200122E0E72FA2F4E75B46A8
:1046D000009AFFF72DFC0C9B9B5C029AA2F1010251
:1046E0000292137050EA0102F1D1029804A9A1EBE1
:1046F000000000F1200B600702D524F4803400E0B4
:1047000001275F4502DDA7EB0B0000E0002000EB76
:104710000B01009003984144A0EB01000390E003DB
:1047200006D453462146179A039800F0B6F905447B
:10473000002706E001A85246C05D179990476D1CFE
:104740007F1C4745F6DBE0030CD553462146179AFC
:10475000039800F0A2F9054404E03020524617996E
:1047600090476D1C0099481E00900029F5DC1EE062
:104770000928010030313233343536373839616237
:1047800063646566000000003031323334353637FB
:1047900038394142434445460000000002980299DE
:1047A00052460078491C0291179990476D1CBBF145
:1047B0000001ABF1010BF1DC50E100F05BF90544C5
:1047C00006F10106307800287FF4DAAD19B02846EA
:1047D000BDE8F08F600700D4062709F1070020F03C
:1047E0000701F1E80220894600F00043190001D0DA
:1047F0009DA109E0210501D59CA105E0E10701D0BB
:104800009BA101E0AFF2840120F000431391BCF1C1
:10481000650F11D009DCBCF1450F0DD0BCF1460F7E
:1048200020D0BCF1470F3ED13EE0BCF1660F19D05D
:10483000BCF1670F7CD137E00021112F01DB112083
:1048400000E0781CCDE9000104A90CA8FFF7E6FC04
:10485000DDE90D010C9A4FF0000B07F101081092F1
:1048600000914CE04FF000400097CDE9018004A991
:104870000CA8FFF7D3FCDDE90E20DDE90C314FF089
:10488000000B90461093009218B907F1010001EB5C
:104890000008B7EB080003D4C0F1FF3B07F10108A3
:1048A000A8EB0700019043E0012F00DA0127002167
:1048B000112F01DD112000E03846CDE9000104A9E7
:1048C0000CA8FFF7ABFCDDE90D010C9A00914FF04D
:1048D000000BB846109221070CD40099B94200DAB7
:1048E0008846B8F1010F05DD109AA8F10101515C6D
:1048F000302908D0B84202DA10F1040F06DA01219B
:10490000CDE9011014E0A8F10101E9E7002803DC7A
:104910008344A8EB000102E0411C414500DD8846CC
:10492000A0EB0B0000F1010001904FF0004002905D
:10493000200705D40198404502DB4FF0FF3001907D
:1049400000208DF84B0002980DF14B07B0F1004F9D
:1049500026D002200C902B200D90029800280CDA13
:10496000404202902D200D9007E00A210298FFF7A7
:10497000C9FA3031029007F8011D0C99481E0C90BD
:104980000029F2DC02980028EFD1A7F101010D986F
:104990000870307800F0200040F0450007F8020D64
:1049A00011A8A0EB070000F107000290139800780F
:1049B00000B1012000EB0801019801EBE0710298C1
:1049C00001440398A0EB0100A0F101000390E00373
:1049D00006D453462146179A039800F05EF8054422
:1049E0001398007820B152461799904705F10105B8
:1049F000E00322D553462146179A039800F04DF85C
:104A000005441AE0BBF1000F07DB0098584504DDB0
:104A10001098179910F80B0001E0179930205246B2
:104A2000904701986D1C401E0BF1010B019004D1C1
:104A30002E205246179990476D1CB8F10001A8F13D
:104A40000108DFDC05E017F8010B52461799904783
:104A50006D1C0299481E02900029F4DC5346214641
:104A6000179A0398A9E600002D0000002B00000013
:104A7000200000002DE9F0410446002517461E469F
:104A8000880405D406E039462020B04705F1010529
:104A9000641EF8D52846BDE8F0812DE9F0410446B2
:104AA000002590461E46C80301D5302700E0202788
:104AB000880405D506E041463846B04705F10105B2
:104AC000641EF8D52846BDE8F08170B50546FFF7AD
:104AD000C7FA044620F00040C0F1FF40C00F08D0E4
:104AE00025F00040C0F1FF40C00F04BF0120FFF7D8
:104AF0008FFB204670BD0000000000000000000099
:104B00006F0EA6389415903F6058F72D1215A03FF0
:104B1000AB047532561EA83F7993E01B0A13B03FD1
:104B2000498E3932E515B43FF017FC7F7B17B83F4B
:104B3000DA97623D8C17BC3FE05BA15DEB0AC03F9A
:104B4000E9AA91330D09C23F7553A8670B06C43F0C
:104B50006C2377D3C501C63F797A03651CFCC73F38
:104B6000A3DDCC20EFF4C93F6A1FD2231EECCB3F5C
:104B7000CCFB94A589E1CD3F96071CFA11D5CF3F18
:104B80004769F9C94BE3D03F0E0E1483FDDAD13FDC
:104B90001FFD24838ED1D23F4FE92F37EFC6D33F7D
:104BA000FB02711F10BBD43FDD9657D0E1ADD53F5E
:104BB0004B667FF3549FD63F19A9A8485A8FD73F19
:104BC00063A9AEA6E27DD83FC2E97CFCDE6AD93F8C
:104BD00063C602524056DA3F9D8125C9F73FDB3F4D
:104BE000C3ACB09EF627DC3F01DE442B2E0EDD3F2A
:104BF0001FA444E48FF2DD3F52A9BF5C0DD5DE3F18
:104C000024F65B4698B5DF3FE4A21E39114AE03F27
:104C10009C2EF5E84EB8E03F512B183C7E25E13F35
:104C20005CE9014D9891E13FEA00B04796FCE13F15
:104C300057BB116A7166E23F5E5A750423CFE23FAB
:104C40004136F479A436E33F0BACDD40EF9CE33F03
:104C50002AD520E3FC01E43FBC01B5FEC665E43F74
:104C6000EFEE004647C8E43FECB240807729E53FCD
:104C7000F057EA895189E53F14201155CFE7E53F08
:104C8000A66BC7E9EA44E63FCD3B7F669EA0E63FC0
:104C9000664B6900E4FAE63F16B8D203B653E73F25
:104CA000A53581D40EABE73FDCC50DEEE800E83F4B
:104CB00014EF3DE43E55E83FEA6B5B630BA8E83F29
:104CC000844E8A3049F9E83FF2911D2AF348E93FC2
:104CD0005714EA470497E93FA8F4979B77E3E93F25
:104CE000C94EF250482EEA3F095135AE7177EA3F7E
:104CF00017A65A14EFBEEA3F862E64FFBB04EB3FB3
:104D00004005A506D448EB3F3CCA08DD328BEB3F9B
:104D1000F72E5951D4CBEB3F5AC0814EB40AEC3F29
:104D2000A7E9D1DBCE47EC3F6C2C3D1D2083EC3F47
:104D300045899953A4BCEC3F8C15DCDC57F4EC3F5F
:104D400031BA5334372AED3FED17E2F23E5EED3FC4
:104D5000468D32CF6B90ED3FE55AEF9DBAC0ED3FE7
:104D6000E3E2F45128EFED3FD8FF82FCB11BEE3FA8
:104D70007E706CCD5446EE3FFF5444130E6FEE3FF1
:104D8000F5BA893BDB95EE3F7235D1D2B9BAEE3F29
:104D9000667EEC84A7DDEE3FE01E101DA2FEEE3F16
:104DA000CF1BF785A71DEF3FF8A404CAB53AEF3F24
:104DB00014C46313CB55EF3FFF0925ACE56EEF3FFD
:104DC00021385AFE0386EF3F5CE42F94249BEF3F8B
:104DD000D015051846AEEF3F03D9805467BFEF3FAB
:104DE00003CAA53487CEEF3F5C93E3C3A4DBEF3F58
:104DF000AF60262EBFE6EF3FFE43E4BFD5EFEF3FA7
:104E0000D38C28E6E7F6EF3F86109D2EF5FBEF3FAB
:104E100012639147FDFEEF3F000000000000F03FED
:104E2000404E0008000000203C000000F041000857
:104E30007C4E00083C0000200445000000420008B1
:104E4000000000000000000001020304010203044E
:104E5000060708090204060800A24A040000000030
:104E6000000000000102030406070809000000001A
:0C4E700000000000000000000000000036
:0400000508000131BD
:00000001FF
