:020000040800F2
:1000000050250020050100081B130008590F0008A7
:1000100017130008150A0008551900080000000011
:100020000000000000000000000000001D16000895
:10003000BD0A000800000000251500085D17000833
:100040001F0100081F0100081F0100081F01000810
:100050001F0100081F0100081F0100081F01000800
:100060001F0100081F0100081F0100081F010008F0
:100070001F0100081F0100081F0100081F010008E0
:100080001F0100081F0100081F0100081F010008D0
:100090001F0100081F0100081F0100081F010008C0
:1000A0001F0100081F0100081F0100081F010008B0
:1000B0001F0100081F0100081F0100081F010008A0
:1000C0001F0100081F0100081F0100081F01000890
:1000D0001F0100081F0100081F0100081F01000880
:1000E0001F0100081F0100081F010008DFF810D0E1
:1000F00000F07EFC004800470D2C0008AFF30080A4
:10010000502500200648804706480047FEE7FEE7E6
:10011000FEE7FEE7FEE7FEE7FEE7FEE7FEE7FEE7B7
:1001200061170008ED000008F0B480EA0102D40F66
:100130004200B2EB410F02D20246084611464A0085
:1001400042D0C30DDDB2C1F3C752AD1A202D35DA4E
:10015000C1F3160141F4000204B15242C5F1200678
:1001600002FA06F12A411044B3EBD05F23D0C4B1A8
:10017000012DA0EBC35009DCF0BC4FF0004202EAB5
:10018000C352DBB200F5000000F05FBB400000F19D
:10019000807000EBC350A0F1807040EAD17049003C
:1001A00009E0490841EAC071A0EBC35000F5000026
:1001B000400800EBC350F0BC00F03EBB614201229E
:1001C00002EB4101001BF6E7F0BC704781F00041F3
:1001D000AAE780F00040A7E780EA010210B502F02C
:1001E0000043400022D04A001FD0010E01EB1261F3
:1001F000C0F35600C2F3560240F4000042F400027D
:10020000A0FB022000047F39140400D0401C50EAF7
:10021000124001D44000491EC2B20C0604EBD010BB
:10022000401C4008802A02D003E0002010BD20F0CE
:100230000100002900DA0020184310BD30B480EA24
:10024000010202F0004530F0004221F0004013D0DE
:1002500090B1C30DD40DC2F31601C0F31600E41A19
:1002600041F4000140F400027D34914201D3641C4A
:1002700000E04900002C02DA30BC002070474FF447
:1002800000000023914201D3891A034340084FEA3A
:100290004101F7D151B1914202D14FF0004105E047
:1002A00002D24FF0010101E06FF0010103EBC450F5
:1002B000284430BC00F0C0BA2DE9FE4F804681EAE8
:1002C0000300C00F0C46009021F0004123F00045D0
:1002D000B8EB0200A94105D24046214690461C4693
:1002E0000B46024623F00040104347D0270DC7F3CA
:1002F0000A00C3F30A510290401A019040286BDAB9
:10030000C3F3130040F4801B0098924620B10023F1
:10031000D2EB030A63EB0B0B01985946C0F1400284
:10032000504600F058FA06460D4650465946019A86
:1003300000F070FA10EB08006141002487EA1152C6
:1003400084EAE7731A4340D0009A62B3019A012A03
:100350004FEA075215DC001B61EB02014FF000422F
:1003600002EA0752CDE90042001C41F580113246F5
:100370002B4600F0D6FA03B0BDE8F08F4046214688
:10038000F9E7001B61EB0201001C41F58013001826
:100390005B412018A2F5001747EB030140EAD57036
:1003A000B6196D4111E06D084FEA360645EAC07591
:1003B0004FEA0752001B61EB0201001C41F580115E
:1003C00049084FEA30000019514132462B4603B02C
:1003D000BDE8F04F00F096BA0098012240000023DB
:1003E000D0EB020263EBE073009821464FEAE07421
:1003F000B8EB000061EB0401E9E783F000435BE741
:1004000081F0004158E72DE9FE4F81EA030404F032
:10041000004421F0004100944FF0000B23F0004312
:1004200050EA01045ED052EA03045BD0C3F30A54DD
:10043000C1F30A552C44A4F2F3340194A0FB0254F6
:10044000C1F3130141F48011C3F3130343F4801388
:1004500001FB024400FB034E840A970A44EA8154DC
:1004600047EA8357A4FB076802958D0A05FB0785B9
:100470004FEA932C04FB0C542705029D4FEA0658C3
:1004800047EA1637B5EB08056EEB070C870E920EA0
:1004900047EA811742EA8312A7FB0201B6EB0B0180
:1004A00064EB00042B0D43EA0C335E1844EB1C5044
:1004B000DA465146E7FB0201C5F313044FEA0B335A
:1004C00043EA14534FEA0432019C43EA0603A4F1C1
:1004D0000C040294009CCDE900B400F022FA03B0B1
:1004E000BDE8F08F00200146F9E72DE9F04D81EAE3
:1004F000030404F0004B21F0004514464FF0000ABD
:1005000023F0004150EA050220D054EA01021DD038
:10051000C5F30A570246C5F31303C1F31300C1F331
:100520000A5640F4801543F48013A7EB0608101B0D
:10053000D64608F2FD3873EB050002D308F1010836
:1005400001E092185B41B8F1000F03DA0020014688
:10055000BDE8F08D00204FF48011064684460EE081
:10056000171B73EB050705D3121B63EB050306434B
:100570004CEA010C49084FEA300092185B4150EAFE
:100580000107EDD152EA030012D082EA040083EAA7
:100590000501084305D0101BAB4106D20122002300
:1005A00006E000224FF0004302E06FF0010253101A
:1005B0001AEB06004CEB085110EB0A0041EB0B0163
:1005C000BDE8F04D00F09EB9C10F80EAE07008442C
:1005D000CA079623002100F038B99623002211465D
:1005E00000F033B90EB5C10F80EAE0700844CA07C5
:1005F000002140F233438DE80E000A460B4600F01E
:1006000090F903B000BD00F0004220F00040C10DA1
:10061000C0F3160040F400007F2901DA0020704783
:10062000962903DCC1F19601C84001E09639884063
:10063000002AF4D04042704770B5C1F30A5201F06D
:1006400000450024C1F3130140F2FF3341F480114F
:100650009A4201DA002070BD40F233439A42A2F27E
:10066000334203DC524200F0C5F800E090402C43D6
:10067000F1D0404270BD00F0004230F000400AD09E
:10068000C10D01F56071C0F3160042EA0151C208C4
:1006900040071143704700200146704730B5041EE3
:1006A00071F1000404DB4FF00044404264EB0101AF
:1006B000141E73F1000405DB1C464FF00043524248
:1006C00063EB04038B4208BF824230BD30B5041E89
:1006D00071F1000404DB4FF00044404264EB01017F
:1006E000141E73F1000405DB1C464FF00043524218
:1006F00063EB0403994208BF904230BD01F0004310
:1007000030B421F0004150EA010206D00A0DA2F5F2
:100710006072C1F31301002A02DC30BC0020704774
:10072000440F44EAC104C100E01830BC00EBC250E1
:1007300000F082B8002801DBC0F10040002901DB95
:10074000C1F100418142704730B50B46014600209F
:100750002022012409E021FA02F59D4205D303FA83
:1007600002F5491B04FA02F52844151EA2F1010204
:10077000F1DC30BD2DE9F05F0546002092469B4636
:1007800088460646814640241BE0284641464746A7
:10079000224600F02FF853465A46C01A914110D312
:1007A00011461846224600F016F82D1A67EB01088C
:1007B0004F4622460120002100F00DF817EB0009FA
:1007C0004E41201EA4F10104DFDC484631462A4692
:1007D0004346BDE8F09F202A04DB203A00FA02F1EC
:1007E000002070479140C2F1200320FA03F319431F
:1007F00090407047202A04DB203A21FA02F00021C1
:10080000704721FA02F3D040C2F120029140084320
:1008100019467047202A06DBCB17203A41FA02F02E
:1008200043EAE07306E041FA02F3D040C2F120024D
:1008300091400843194670470029A8BF7047401CE3
:10084000490008BF20F00100704710B4B0FA80FCE6
:1008500000FA0CF050EA010404BF10BC704749B123
:10086000CCF1200421FA04F411FA0CF118BF012193
:1008700021430843A3EB0C01CB1D4FEA00614FEA73
:10088000102042BF002010BC704700EBC350104442
:100890000029A4BF10BC7047401C490008BF20F0CD
:1008A000010010BC7047F0B4002802DCF0BC00204E
:1008B0007047C0F3C751C0F3160040F40000CA07E8
:1008C00001D14000491E3F2202EB61050022114682
:1008D0004FF4000626FA01F31344D418844201D8D9
:1008E000001B1A464000491C1729F3DD51008142C4
:1008F00002D24FF0FF3100E0002102EBC550F0BC06
:10090000FFF79ABF10B5141E73F1000408DA401CFB
:1009100041F1000192185B411A4301D120F001001E
:1009200010BD2DE9F04D92469B4611B1B1FA81F20E
:1009300002E0B0FA80F220329046FFF74CFF044606
:100940000F4640EA0A0041EA0B0153465A46084363
:1009500013D0114653EA010019D0C8F140025046A5
:10096000FFF748FF05460E46504659464246FFF7F8
:1009700032FF084305D0012004E020463946BDE897
:10098000F08D0020054346EAE0762C4337430A9871
:100990006305E40AA0EB08000022FD0A44EA47547C
:1009A0000A3002D500200146E9E701051019694126
:1009B000DDE9084500196941BDE8F04DA2E7C1F342
:1009C0000A52C1F3130140F2FF3341F480119A42FD
:1009D00002DA00200146704740F233439A42A2F205
:1009E000334202DC5242FFF705BFFFF7F4BE0000BE
:1009F000064C074D06E0E06840F0010394E807006C
:100A000098471034AC42F6D3FFF774FBE83900087E
:100A1000083A000800BFFEE770B50024002500F08A
:100A2000BFF810B147F6FF7070BDCC2000F0DEF8C3
:100A3000442000F0DBF800F0B3F810B147F6FF7087
:100A4000F2E7CC2000F0D2F8BE2000F0CFF800F0A2
:100A500009F8044600F006F8054604EB052000B24C
:100A6000E2E7000070B5002521E000F083F84FF4C4
:100A70008051114800F06CFA022000F045F84FF464
:100A800080510D4800F066FA00F062F80C2000F08A
:100A90003BF864104FF48051074800F050FA08B159
:100AA00044F08004322000F02FF8681CC5B2082DF5
:100AB000DBDB204670BD0000000C014070470000E9
:100AC00070B504460F4800684FF47A71B0FBF1F638
:100AD000304600F019FE002508E000BF4FF0E0208E
:100AE000006900F480300028F8D06D1CA542F4D3D2
:100AF0004FF0E020006920F001004FF0E021086194
:100B000070BD00000000002070B504460E4800686B
:100B10000E49B0FBF1F6304600F0F6FD002508E086
:100B200000BF4FF0E020006900F480300028F8D0CA
:100B30006D1CA542F4D34FF0E020006920F00100C5
:100B40004FF0E021086170BD0000002040420F001E
:100B500008B50121082000F0E7FC04208DF803000F
:100B60008002ADF800006946014800F05DF908BD5B
:100B7000000C014008B50121082000F0D5FC102030
:100B80008DF803000002ADF8000003208DF802008C
:100B90006946024800F048F908BD0000000C014019
:100BA00010B50124FFF7E6FF21030F4800F0D0F94C
:100BB0004FF4FA70FFF7A8FF21030B4800F0CAF9C1
:100BC0003C20FFF7A1FFFFF7C3FF2103064800F019
:100BD000B6F90446B420FFF797FF4FF4805102485E
:100BE00000F0B8F9204610BD000C014070B5044675
:100BF000FFF7C0FF002526E004F0010080B14FF4AC
:100C00008051124800F0A4F90220FFF77DFF4FF455
:100C100080510E4800F09EF93C20FFF775FF0FE071
:100C20004FF48051094800F093F93C20FFF76CFF26
:100C30004FF48051054800F08DF90220FFF764FF62
:100C40006410681CC5B2082DD6DB70BD000C0140D5
:100C50000FB47CB504460A990898FFF7BDFA05461B
:100C600009990798FFF7B8FA06462946FFF7AEFA42
:100C70000090DDE90801FFF7AFFA05460A990798E9
:100C8000FFF7AAFA06462946FFF74EFA0190DDE97A
:100C90000001C4E900017CBC5DF814FB2DE9F04FB4
:100CA00091B0044600264FF480700E9040F2FF1081
:100CB0000D9000251CE0B5420FDA04EBC60103C914
:100CC000CDE9060104EBC60004EBC50206CA06C066
:100CD00004EBC500DDE9061206C00E9F04E0F61B1A
:100CE000384607EBD0714F10B742F8DD3E446D1C1B
:100CF0000D988542DFDB4FF400700F9001200C90BF
:100D000002E00C98401C0C900F9800EBD071491039
:100D10000F910129F5D188467BE0A8F1010002215D
:100D200001FA00F9484609EBD0714FEA610A4FF029
:100D30007E500A9000200B905046FFF753FC02466D
:100D40000B46CDE9000136483649FFF7CEFBCDE929
:100D5000020100F001FECDE90401FFF7CFFC08908D
:100D60005046FFF73FFC02460B46CDE900012C48F8
:100D70002C49FFF7BAFBCDE9020100F001FE81F03A
:100D80000041CDE90401FFF7B9FC099000263AE0E3
:100D900035462CE005EB0A0B0B9804EBCB0C0090CE
:100DA0000A9B06A8DCE90012FFF752FF54F8350051
:100DB0000699FFF70BFA44F83B0004EBC5020799CC
:100DC0005068FFF703FA04EBCB01486054F8350094
:100DD0000699FFF7A9F944F8350004EBC502079915
:100DE0005068FFF7A1F904EBC50148604D44B5F523
:100DF000007FCFDB099800900AA8089BDDE90A1262
:100E0000FFF726FF761CAAF10100B042C0DA08F114
:100E100001080C98804580DD11B0BDE8F08F00001E
:100E2000182D4454FB2109402DE9F04102460025CC
:100E30000026002000230024002791F803C00CF0B6
:100E40000F0591F803C00CF0100CBCF1000F03D09B
:100E500091F802C04CEA050591F800C0BCF1000F02
:100E600031D0146800202BE04FF0010C0CFA00F395
:100E7000B1F800C00CEA03069E4220D183004FF077
:100E80000F0C0CFA03F7BC4305FA03FC4CEA04040C
:100E900091F803C0BCF1280F06D14FF0010C0CFAF9
:100EA00000FCC2F814C00AE091F803C0BCF1480F7E
:100EB00005D14FF0010C0CFA00FCC2F810C0401C28
:100EC0000828D1D31460B1F800C0BCF1FF0F34DDA5
:100ED000546800202EE000F1080C4FF0010808FAD9
:100EE0000CF3B1F800C00CEA03069E4221D1830046
:100EF0004FF00F0C0CFA03F7BC4305FA03FC4CEA65
:100F0000040491F803C0BCF1280F05D100F1080CCE
:100F100008FA0CF8C2F8148091F803C0BCF1480F2D
:100F200007D100F1080C4FF0010808FA0CF8C2F8DC
:100F30001080401C0828CED35460BDE8F0810246E2
:100F4000002093680B400BB1012000E000207047A7
:100F5000416170470161704700BFFEE710B504466C
:100F600094B180211448FFF7F5FF00F027F84021E5
:100F70001148FFF7EFFF00F021F840210E48FFF77E
:100F8000E7FF00F01BF815E080210B48FFF7E0FFBA
:100F900000F014F840210848FFF7DCFF00F00EF8DD
:100FA00040210548FFF7D4FF00F008F880210248EF
:100FB000FFF7D0FF10BD0000000C0140062000BF6D
:100FC000011EA0F10102D0B2FAD1704708B501218B
:100FD000082000F0A9FA14208DF803004020ADF895
:100FE000000003208DF8020069460548FFF71CFF4A
:100FF0008020ADF8000069460148FFF715FF08BDE5
:10100000000C01402DE9F0410446884616461F4673
:1010100000F0D4F8E0B200F089F81A48007801280E
:1010200002D10020BDE8F08108F0FF0000F07EF85A
:1010300014480078012801D10020F3E700F0BEF841
:10104000611CC8B200F072F80E480078012801D186
:101050000020E7E700250FE000F046F806F8010B56
:10106000781EA84203D10120FFF778FF02E000209C
:10107000FFF774FF681C85B2BD42EDDB00F0B8F8E5
:101080000120CFE72800002070B504460D4600F08F
:1010900095F8E0B200F04AF812480078012801D132
:1010A000002070BD284600F041F80E480078012865
:1010B00001D10020F5E700F081F8611CC8B200F012
:1010C00035F808480078012801D10020E9E700F050
:1010D0000BF806460120FFF741FF00F089F8304683
:1010E000DFE700002800002070B50024002516E08E
:1010F0006006040E40210C48FFF72CFFFFF75EFF4F
:1011000080210948FFF71BFF08B1601CC4B24021D1
:101110000548FFF71DFFFFF751FF681CC5B2082DFA
:10112000E6DB204670BD0000000C014070B50446AF
:1011300000251DE004F0800020B180211D48FFF74C
:1011400009FF03E080211B48FFF702FFFFF736FF8E
:1011500040211848FFF7FEFEFFF730FF40211548F9
:10116000FFF7F6FEFFF72AFF6006040E681CC5B203
:10117000082DDFDB80210F48FFF7ECFEFFF71EFF95
:1011800040210C48FFF7E6FEFFF718FF80210948D1
:10119000FFF7D5FE18B101200749087002E00020D2
:1011A0000549087040210348FFF7D2FEFFF706FF0C
:1011B00070BD0000000C01402800002010B5402147
:1011C0000A48FFF7C7FE80210848FFF7C3FEFFF774
:1011D000F5FE80210548FFF7BBFEFFF7EFFE40213B
:1011E0000248FFF7B5FEFFF7E9FE10BD000C014015
:1011F00010B580210748FFF7ABFE40210548FFF7F7
:10120000A9FEFFF7DBFE80210248FFF7A3FEFFF7F0
:10121000D5FE10BD000C014070B504460D461646C3
:10122000FFF7CCFFE0B2FFF781FF0E4800780128FE
:1012300001D1002070BD2846FFF778FF09480078EB
:10124000012801D10020F5E73046FFF76FFF054880
:101250000078012801D10020ECE7FFF7C9FF012049
:10126000E8E700002800002010B5C0220221AE20CF
:10127000FFF7D2FF00220321AE20FFF7CDFF0022AF
:101280000421AE20FFF7C8FF00220521AE20FFF7A2
:10129000C3FF00220621AE20FFF7BEFF0F22082168
:1012A000AE20FFF7B9FF03220921AE20FFF7B4FFFC
:1012B00027220A21AE20FFF7AFFF32220C21AE20F9
:1012C000FFF7AAFF32220D21AE20FFF7A5FF7F22F4
:1012D0001021AE20FFF7A0FF10BD000008B50121CE
:1012E000082000F021F904208DF80300C001ADF8BA
:1012F000000069460148FFF797FD08BD000C01405A
:1013000010B540220921AE20FFF786FF08B1012069
:1013100010BD0020FCE700BFFEE7704710B5AE220D
:1013200000217820FFF778FF202200217820FFF7A6
:1013300073FF002211467820FFF76EFFB0220021D4
:101340007820FFF769FFC82200217820FFF764FFAB
:10135000002211467820FFF75FFF1022002178203D
:10136000FFF75AFF402200217820FFF755FF812226
:1013700000217820FFF750FFDF2200217820FFF7BF
:101380004BFFA12200217820FFF746FFA622002173
:101390007820FFF741FFA82200217820FFF73CFFCB
:1013A0003F2200217820FFF737FFA4220021782078
:1013B000FFF732FFD32200217820FFF72DFF002214
:1013C00011467820FFF728FFD52200217820FFF76B
:1013D00023FFF02200217820FFF71EFFD9220021F1
:1013E0007820FFF719FF222200217820FFF714FF51
:1013F000DA2200217820FFF70FFF12220021782047
:10140000FFF70AFFDB2200217820FFF705FF2022EB
:1014100000217820FFF700FF8D2200217820FFF7C0
:10142000FBFE142200217820FFF7F6FEAF220021F8
:101430007820FFF7F1FE10BD0FB42DE9F0439BB00B
:1014400004468846002625A8019002A8019A2499FE
:1014500000F0AEFB002001900DF1080955E0274691
:101460003CE007F1B000C2B200217820FFF7D4FEC3
:1014700008F00F0200217820FFF7CEFE102000EBCD
:10148000281200217820FFF7C7FEA74210D10025BF
:101490000CE099F800002038214901EB0010425D72
:1014A00040217820FFF7B8FE681CC5B2082DF0DB9C
:1014B000601C874210D108250CE099F80000203804
:1014C000174901EB0010425D40217820FFF7A4FE90
:1014D000681CC5B2102DF0DB781CC7B2A01C874277
:1014E000BFDB701CC6B208F1080000F0FF08F1175E
:1014F00006EB11710911A6EB011109B9A01CC4B2C8
:10150000402E00D105E009F1010999F800000028FA
:10151000A5D100BF1BB0BDE8F0035DF814FB0000CF
:10152000582E00087047000029B1064A926902430C
:10153000044B9A6104E0034A92698243014B9A6129
:10154000704700000010024030B500210022002446
:1015500000232D4D6D6805F00C0121B1042905D043
:10156000082923D105E0294D056022E0274D0560BB
:101570001FE0254D6D6805F47012234D6D6805F46C
:101580008034022505EB92421CB9214D554305607C
:101590000BE01D4D6D6805F400351DB11C4D554324
:1015A000056002E0194D5543056002E0174D0560E6
:1015B00000BF00BF144D6D6805F0F0010909154D1D
:1015C0006B5C0568DD4045600F4D6D6805F4E061BA
:1015D000090A104D6B5C4568DD4085600A4D6D68F9
:1015E00005F46051C90A0B4D6B5C4568DD40C56070
:1015F000054D6D6805F44041890B074D6B5CC5686E
:10160000B5FBF3F5056130BD0010024000127A0011
:1016100000093D001400002024000020704710B590
:1016200000F002F810BD00000CB500200190009001
:101630003348006840F480303149086000BF3048CA
:10164000006800F4003000900198401C0190009860
:1016500018B90198B0F5A06FF1D12948006800F4DD
:10166000003010B10120009001E0002000900098AF
:10167000012843D12348006840F010002149086048
:101680000846006820F0030008600846006840F043
:10169000020008601A4840681949486008464068D6
:1016A00048600846406840F48060486008464068EA
:1016B00020F47C1048600846406840F4E810486018
:1016C0000846006840F08070086000BF0C48006861
:1016D00000F000700028F9D00948406820F00300AD
:1016E000074948600846406840F00200486000BF73
:1016F0000348406800F00C000828F9D10CBD000038
:10170000001002400020024030B50146B1F1807F58
:1017100001D3012030BD21F07F40401E4FF0E02278
:10172000506150170F22002807DA13071D0E094BCE
:1017300000F00F04241F1D5503E013071C0E064B79
:101740001C5400BF00204FF0E02290610720106180
:101750000020DFE718ED00E000E400E07047000043
:1017600010B51348006840F00100114908600846B0
:101770004068104908400E494860084600680E4914
:1017800008400B4908600846006820F48020086083
:101790000846406820F4FE0048604FF41F0088604F
:1017A000FFF73DFF4FF000600449086010BD0000E6
:1017B000001002400000FFF8FFFFF6FE08ED00E019
:1017C00000B585B001210420FFF7AEFE012188039A
:1017D000FFF7AAFE18208DF813004FF40070ADF843
:1017E000100003208DF8120004A91348FFF71CFB1A
:1017F00004208DF813000002ADF8100004A90E4873
:10180000FFF712FB4FF4E13000900020ADF80C0020
:101810000C20ADF80A000020ADF80800ADF8060075
:10182000ADF804006946054800F024F8012103489A
:1018300000F006F805B000BD000801400038014086
:1018400021B1828942F40052828104E082894DF6FE
:10185000FF731A408281704702460020B1F5007F75
:1018600000D100BF13880B400BB1012000E0002025
:10187000704700002DE9F04786B005460E4600246B
:10188000A24600BFA1460027B08900B100BF2F4685
:101890002C8A4CF6FF700440F08804432C82AC89FB
:1018A0004EF6F3100440B08831890843718908432B
:1018B0000443AC81AC8A4FF6FF400440B089044336
:1018C000AC8201A8FFF740FE1F48874202D1DDF835
:1018D00010A001E0DDF80CA0A88900F4004040B1A0
:1018E0000AEBCA0000EB0A1031684900B0FBF1F8BE
:1018F00007E00AEBCA0000EB0A1031688900B0FB70
:10190000F1F86420B8FBF0F004012009642101FB28
:101910001089A88900F4004040B1322000EBC900D2
:10192000B0FBF1F000F00700044308E0322000EBC8
:1019300009106421B0FBF1F000F00F0004432C818A
:1019400006B0BDE8F087000000380140C1F308028E
:101950008280704700BFFEE72DE9F04104460D4646
:10196000054A064B20462946FEF7A6FC064600F02F
:1019700007F8BDE8F0810000182D4454FB21F93F21
:101980002DE9F04F93B004460D464FF0000B0022B6
:10199000134620462946FEF781FE03D24FF0010B85
:1019A00085F00045704A714B2046294601F0F2F956
:1019B00004460D466C4A6E4B20462946FEF786FECD
:1019C0000ED2BBF1000F01D1012000E000208346C0
:1019D000654A674B20462946FEF70FFD04460D4633
:1019E000614A644B20462946FEF770FE07D25E4AE4
:1019F0005F4B20462946FEF703FD04460D465E4A2E
:101A00005E4B20462946FEF770FDCDE90E01FEF73C
:101A100013FE82465046FEF7E5FD574A574BCDE987
:101A20000C01FEF7F0FC22462B46CDE90E01FEF735
:101A3000E7FC06460F46504A514B30463946FEF702
:101A400045FE09D20AF1010A4B4A4C4B3046394651
:101A5000FEF7D3FC06460F464A4800EBCA00D0E921
:101A60000089CAF16400474901EBC00003C8CDE911
:101A7000100132463B4630463946FEF7C4FC32463A
:101A80003B46CDE90401FEF7BEFC32463B46CDE9BC
:101A90000601FEF7B8FC42464B46CDE90801FEF7C9
:101AA000B2FC0022384BCDE90A01FEF71EFD32469A
:101AB0003B46CDE90E0130463946FEF7A4FC3246DE
:101AC0003B46CDE90201FEF79EFCCDE90401DDE9CC
:101AD0001023FEF798FC00222C4BCDE90601FEF7FF
:101AE00004FD32463B46CDE90A0130463946FEF751
:101AF0008AFC42464B46CDE90001FEF784FC0022F9
:101B00004FF08043CDE90201FEF7EFFCCDE906017D
:101B100030463946DDE91023FEF775FC42464B4658
:101B2000CDE90201FEF7C8FBCDE90401DDE906239A
:101B3000FEF763FCCDE90801DDE90A23FEF75DFC51
:101B4000CDE90C01DDE90E23FEF7B6FB04460D4698
:101B5000BBF1000F05D0204685F0004113B0BDE871
:101B6000F08F20462946F9E7182D4454FB211940EF
:101B7000FB210940FB21F93F1A271792BF15903F1F
:101B8000BF15803F4834000800003840000018406E
:101B90000FB4054B10B503A9044A029800F0F2F8FF
:101BA00010BC5DF814FB0000E92B00084400002085
:101BB00037B514460846064B6A46214600F0E2F85F
:101BC00004466946002000F060FC20463EBD00004F
:101BD0008B24000802E008C8121F08C1002AFAD1AD
:101BE00070477047002001E001C1121F002AFBD19D
:101BF000704700000149086070470000480000205D
:101C00002DE9FF5F82B00021DDE90430020DDDF82F
:101C100040B0034318D044F61050A2F2FF324243C2
:101C20001514119801281FD0A5EB0B00401C5FEA8A
:101C3000000A4FF000064E4FDFF83891B04650468C
:101C400015D5CAF1000413E0119801244AA3012814
:101C500001D16FEA0B010298119AC0E90031C0E985
:101C6000024206B0BDE8F09FCBF10000DFE704467A
:101C70000021404A491842EB0450CDE9001012E01F
:101C8000E00707D032463B4640464946FEF7BBFBDD
:101C90008046894632463B4610461946FEF7B3FB5E
:101CA00006460F466410002CEAD1DDE90401DDE9A7
:101CB0000023BAF1000F06DAFEF7A5FB42464B46B9
:101CC000FEF7A1FB05E0FEF710FC42464B46FEF78F
:101CD0000CFC04460E460022284BFEF7F7FC03D806
:101CE0004FF0FF30014607E00022254B20463146E9
:101CF000FEF7E2FAFEF763FE102409E0002C0ADB8F
:101D00000A220023FEF736FD039B30321A55641E6B
:101D100050EA0102F2D1641C039AC4F11103144485
:101D2000119A012A03D0012208430DD10AE0084389
:101D300004D000204FF0110B119072E7A3EB0B05BC
:101D40006D1E0DE05B4504DD4FF0000205F101055D
:101D500004E003DA4FF00002A5F10105002AECD0FF
:101D600002981199C0E90231C0E9004579E7000005
:101D7000000014400000F03F300000000000F0437D
:101D80000000E03F2DE9FF4F95B09A468846064691
:101D90000025EEE1252877D100242746F94A0121C4
:101DA000039400E0044316F8013F203B01FA03F0DE
:101DB0001042F7D130782A2811D06FF02F033078F5
:101DC000A0F13002092A16D8039A44F0020402EB6B
:101DD000820203EB42021044761C0390EFE758F8AE
:101DE000042B0392002A03DA504244F40054039077
:101DF00044F00204761C30782E2816D116F8010F14
:101E000044F004042A280DD06FF02F023078A0F19E
:101E10003003092B09D807EB870302EB4303C718EC
:101E2000761CF3E758F8047B761C30786C280FD0CA
:101E300006DC4C2817D068280DD06A2814D104E09D
:101E4000742810D07A280FD10DE044F400140AE071
:101E500044F4801401E044F440147278824202D1C8
:101E600004F58014761C761C307866280BD013DCC1
:101E7000582877D009DC002875D04528F6D04628A8
:101E8000F4D047281AD193E118E0632835D06428AC
:101E900079D0652812D18BE1702873D008DC6728CF
:101EA000F1D069286FD06E280DD06F2806D1ACE034
:101EB00073282CD0752874D0782853D0524617999F
:101EC00090476D1C54E1C4F30250022809D0032846
:101ED0000DD0D8F8001004280DD00D6008F10408CA
:101EE00046E1D8F80010EA17C1E90052F6E7D8F841
:101EF00000100D80F2E70D70F0E718F8041B8DF864
:101F0000001000208DF80100EB46012003E058F896
:101F100004BB4FF0FF3061074FF0000102D40DE029
:101F200009F101018946B9420FDA8145F8DB1BF856
:101F300009100029F4D108E009F101018946814224
:101F4000FADB1BF809100029F6D103985346A0EBE1
:101F5000090721463846179A00F080FA284400EB1A
:101F6000090507E044E008E10DE01BF8010B5246CB
:101F700017999047B9F10109F7D2534621463846DF
:101F8000179AF2E039E00A21C4F302524FF0000B35
:101F90000091022A06D058F8040BC117032A09D071
:101FA0000AE023E008F1070020F00702F2E802014E
:101FB000904605E000B2C117042A01D140B2C11712
:101FC000002906DA0A460021404261EB02012D2277
:101FD00002E0220504D52B228DF80420012203E023
:101FE000E20701D02022F7E7914657E00A2100E0FE
:101FF00010214FF0000B00910BE010214FF0000B6F
:1020000044F004040827009103E008204FF0000B7F
:102010000090C4F30252022A05D058F8040B0021A4
:10202000032A08D008E008F1070020F00702F2E8D0
:102030000201904603E080B2042A00D1C0B24FF002
:10204000000922072AD53278702A07D0DDF800C0AF
:102050008CF0100C5CEA0B0C05D00EE040228DF8E1
:102060000420012208E050EA010306D030238DF855
:1020700004308DF8052002229146009B83F008036E
:1020800053EA0B030AD150EA010201D1620705D5D8
:1020900030228DF804204FF001097F1E3278582A33
:1020A00004D039A20C920CAA02920BE03BA2F9E7F1
:1020B0005B46009AFEF75EFB0C9B9B5C029A521EED
:1020C0000292137050EA0102F2D1029804A9081A90
:1020D00000F1200B600702D524F4803400E00127D2
:1020E0005F4502DDA7EB0B0000E0002000EB0B01D9
:1020F000009003984944401A0390E00306D45346E5
:102100002146179A039800F0A9F90544002706E034
:1021100001A85246C05D179990476D1C7F1C4F4522
:10212000F6DBE0030CD553462146179A039800F0DE
:1021300095F9054404E030205246179990476D1CEC
:102140000099481E00900029F5DC08E002980299E9
:1021500052460078491C0291179990476D1CBBF1BB
:102160000001ABF1010BF1DC5BE100F065F9054426
:10217000761C307800287FF40DAE19B02846BDE8F3
:10218000F08F000009280100303132333435363702
:1021900038396162636465660000000030313233B3
:1021A0003435363738394142434445460000000053
:1021B000600700D4062708F1070020F00700F0E8C8
:1021C0000223804603F0004C5FEA0C0001D097A088
:1021D00009E0200501D596A005E0E00701D095A013
:1021E00001E0AFF24C001390307823F000436528F3
:1021F0000CD006DC452809D046281DD047287FD1C1
:102200003BE0662818D067287AD136E00021112FEC
:1022100001DB112000E0781CCDE9000104A90CA825
:10222000FFF7EEFCDDE90D010C9A4FF0000B07F112
:102230000109109200914EE04FF000400097CDE967
:10224000011004A90CA8FFF7DBFCDDE90D020C9BD3
:102250000F994FF0000B91461093009211B9791C21
:1022600000EB0109B7EB090003D4C0F1FF3B07F114
:102270000109A9EB0700019042E0012F00DA0127D4
:102280000021112F01DD112000E03846CDE90001C9
:1022900004A90CA8FFF7B4FCDDE90D010C9A00912C
:1022A0004FF0000BB946109221070FD4009A4A450F
:1022B00003DA914601E0A9F10109B9F1010F05DD49
:1022C000109AA9F10101515C3029F4D0B84202DA28
:1022D00010F1040F03DA0121CDE9011010E000280C
:1022E00003DC8344A9EB000102E0411C494500DD09
:1022F0008946A0EB0B00401C01904FF0004002907B
:10230000200705D40198484502DB4FF0FF300190CB
:1023100000208DF84B0002980DF14B07B0F1004FF3
:1023200025D002200C902B200D90029800280CDA6A
:10233000404202902D200D9007E00A210298FEF7FE
:1023400003FA3031029007F8011D0C99481E0C90D9
:102350000029F2DC02980028EFD1791E0D98087050
:10236000307800F0200040F0450007F8020D11A879
:10237000C01BC01D02901398007800B1012000EB33
:102380000901019801EBE071029801440398401A99
:10239000401E0390E00306D453462146179A039843
:1023A00000F05CF805441398007818B1524617996C
:1023B00090476D1CE00323D553462146179A039896
:1023C00000F04CF805441BE0BBF1000F07DB009860
:1023D000584504DD1098179910F80B0001E0179983
:1023E00030205246904701980BF1010B401E05F139
:1023F0000105019004D12E205246179990476D1C7B
:10240000B9F10001A9F10109DEDC05E017F8010BC3
:102410005246179990476D1C0299481E0290002958
:10242000F4DC53462146179A03989EE62D000000DF
:102430002B000000200000002DE9F041044600259B
:102440001E461746880404D405E039462020B047CC
:102450006D1C641EF9D52846BDE8F0812DE9F041D8
:10246000044600251E469046C80301D5302700E0EB
:102470002027880404D505E041463846B0476D1C46
:10248000641EF9D52846BDE8F0810A68531C0B602C
:10249000107070472DE9FC4100F0DEFA00F060F8A2
:1024A0001D481EA2002103680220FEF7C5FF1A493D
:1024B0004868FEF7E0F806461C4A1D4BFEF706F991
:1024C00002D21A481A4903E013494868FEF7D3F8C4
:1024D0000446FEF713F9104948604868FEF7CBF848
:1024E00014A2CDE9000100210420FEF7A5FF0A484F
:1024F000016814A0FFF74CFB0A20FEF7E1FA064939
:102500004868FEF7B8F8044622460B4610A0FFF7CD
:102510003FFBBDE8FC8100003C0000206865617263
:10252000743A2533642F6D696E2020008FC2F52820
:102530005CFF584053704F323A25322E32662525C3
:1025400020200000D6B8C1EED0C4C2CA2533640032
:10255000D6B8C1EED1AAD1F525302E3266000000E2
:102560002DE9F04F91B00026B14600200F900E905B
:1025700000240EE0FE4850F834103046FDF7D4FD3C
:102580000646FC4850F834104846FDF7CDFD81461C
:10259000641CB4F5007FEDD34FF088413046FDF761
:1025A0004DFE06464FF088414846FDF747FE8146FE
:1025B000002412E0EE4951F834003146FDF706FEE2
:1025C000EB4941F83400EB4951F834004946FDF736
:1025D000FDFDE84941F83400641CB4F5007FE9D3FF
:1025E000E548FFF7D5FA01244EE0E14850F83410F1
:1025F0004FF08040FDF7F0FD8046601EDC4A52F847
:1026000030104046FDF790FD0746D94A601C52F84D
:1026100030103846FDF788FD10901098FEF72BF823
:102620000022D64BCDE90A01FDF75FFF0746FEF712
:1026300065F8CF4941F83400CE4850F834104FF0D7
:102640008040FDF7C9FD8046601ECA4A52F830102E
:102650004046FDF769FD0746C64A601C52F8301037
:102660003846FDF761FD10901098FEF704F800223F
:10267000C24BCDE90A01FDF738FF0746FEF73EF8E9
:10268000BC4941F83400641CB4F5FF7FADD9002487
:102690009DE0B74B621C53F832101A4652F83400D2
:1026A000FDF742FDB24A0890A01C52F8301008987D
:1026B000FDF73AFDAE4A0990E01C52F83010099837
:1026C000FDF732FDAA4A0A90201D52F830100A98F0
:1026D000FDF72AFDA64A0B90601D52F830100B98AA
:1026E000FDF722FD8046A24AA01D52F83010404658
:1026F000FDF71AFD07469E4AE01D52F83010384695
:10270000FDF712FD10901098FDF7B5FF00229C4BCD
:10271000CDE90A01FDF7E9FE0746FDF7EFFF944911
:1027200041F83400934B621C53F832101A4652F8A9
:102730003400FDF7F9FC8F4A0890A01C52F83010C5
:102740000898FDF7F1FC80468A4AE01C52F83010E8
:102750004046FDF7E9FC874A0990201D52F83010E9
:102760000998FDF7E1FC834A0A90601D52F8301089
:102770000A98FDF7D9FC07467E4AA01D52F8301092
:102780003846FDF7D1FC7B4A0B90E01D52F8301023
:102790000B98FDF7C9FC10901098FDF76CFF002214
:1027A000774BCDE90A01FDF7A0FE0746FDF7A6FF2E
:1027B000704941F834006E4951F83400FDF75BFF71
:1027C00007463A460B466FA0FFF7E2F9641CB4F5E2
:1027D000FC7FFFF45EAF6D48FFF7DAF900240BE0F1
:1027E000644951F83400FDF746FF07463A460B4668
:1027F00064A0FFF7CDF9641CB4F5007FF0D3644802
:10280000FFF7C6F90020634908605948FEF746FA09
:102810005848FEF743FA6048FFF7BAF9002438E059
:10282000534A02EBC4025168514A02EBC402506899
:10283000FDF7D2FC80464E4A52F8341052F834006C
:10284000FDF7CAFC41460B90FDF76EFC074600F011
:10285000EDFA474941F83400464A02EBC402516898
:10286000444A02EBC4025068FDF7B6FC8046414A78
:1028700052F8341052F83400FDF7AEFC41460B908C
:10288000FDF752FC074600F0D1FA394941F834000F
:10289000641CB4F5007FC3D301240EE0344850F823
:1028A00034100F98FDF740FC0F90324850F8341068
:1028B0000E98FDF739FC0E90641CB4F5007FEDD343
:1028C00000240BE02A4951F83400FDF7D4FE0746F6
:1028D0003A460B462BA0FFF75BF9641CFF2CF1D99D
:1028E0002E48FFF755F900240BE0224951F8340037
:1028F000FDF7C1FE07463A460B4622A0FFF748F90E
:10290000641CFF2CF1D92648FFF742F91E21184814
:1029100000F051F90D901E21164800F04CF90C9072
:1029200020A00D99FFF734F91EA00C99FFF730F99C
:102930000D98FDF757FE074600221C4BFDF763FD7F
:1029400000224FF08143CDE90601FDF7CEFD0022C4
:10295000174BCDE90801FDF756FDCDE90A01FDF75A
:10296000CDFE82465046FDF74EFE1249086023E038
:102970004C000020CC1000208C39000800001040D2
:102980000000204025660D0A0000000028390008DC
:102990006438000830000020F0370008CC38000808
:1029A0007037000825640D0A00000000000059403F
:1029B00000004E403C00002049460F98FDF70CFCFB
:1029C000074631460E98FDF707FC80463946FDF76D
:1029D00035FC83465846FDF74EFE0746174A184B0E
:1029E000FDF711FDCDE906015846FDF744FECDE99E
:1029F00002015846FDF73FFE124A134BCDE9000194
:102A0000FDF701FD0746DDE90223FDF7FCFCCDE9FA
:102A10000401DDE90623FDF74FFC0C4A0C4BCDE920
:102A20000801FDF749FCCDE90A01FDF767FE0546FF
:102A300008494D6011B0BDE8F08F0000B4C876BE03
:102A40009F5A3E4048E17A14AE8746C0AE47E17ACD
:102A500014B657403C00002010B500201D49086006
:102A600031E029E000F00AF91A480068B0F5007F6B
:102A700022D219480088FDF7B0FD1849154A12689E
:102A800041F832000020134A126801EBC20148608D
:102A900013480088FDF7A1FD12490E4A126841F85B
:102AA000320000200B4A126801EBC201486009485D
:102AB0000068401C074908604FF400710A48FEF79F
:102AC0003EFA0028CED003480068B0F5007FC8D396
:102AD00010BD0000300000202A0000204C00002023
:102AE0002C000020CC100020000C01402DE9FC41FE
:102AF0000024FDF791FF0546FDF766FD04462046DC
:102B0000FDF7B9FD054600220F4BFDF77CFC07469B
:102B1000FDF7F4FD04462046FDF7ADFD05462A46C7
:102B20000B460AA0FFF734F82046FDF7A4FD0BA2E0
:102B3000CDE9000100210846FEF77EFCC820FDF724
:102B4000BFFFBDE8FC8100000000B03FD6B8C1EE79
:102B5000CEC2B6C825302E326600000054656D70B6
:102B60003A25302E326660430000000070B50546FD
:102B700000241DE004F1B000C2B200217820FEF76D
:102B80004BFB002211467820FEF746FB1022002165
:102B90007820FEF741FB002606E02A4640217820F7
:102BA000FEF73AFB701CC6B2802EF6DB601CC4B286
:102BB000082CDFDB70BD2DE9F04105460E460424EC
:102BC000274655F8348000BF09E055F834104046D8
:102BD000FDF7B0FD02D255F834802746641CB4429C
:102BE000F3DB3846BDE8F08170B504460D46E1B22E
:102BF0000548FEF7ABFE00BF80210348FEF72CFE20
:102C00000028F9D0204670BD003801400024FEF7AE
:102C1000D7FD14A0FEF7BCFFFEF7D8F9FEF77EFB48
:102C20000020FFF7A3FFFDF7BBFFFDF7F5FEFEF762
:102C300055FBFEF765FBFEF717FB00BF0AE001E05E
:102C400000F01CF84FF400710B48FEF778F90028EB
:102C5000F6D0641C802CF2DB03E0FFF747FFFFF7A0
:102C600019FCFAE7D5E2CAC7B4AEBFDAB5F7CAD4E1
:102C7000D6FACAD60D0A0000000C01401CB500208F
:102C80002F4908802F4908800021AE20FEF7FCF96B
:102C90000121AE20FEF7F8F907208DF80000062389
:102CA0006A460721AE20FEF7ADF99DF800404FF6C9
:102CB000FF7000EA843422480088204420490880BC
:102CC0009DF801404FF6FF7000EA84140846008822
:102CD000204408809DF80240A41008460088204443
:102CE00008809DF803404FF6FF7000EA84341548D1
:102CF00000882044134908809DF804404FF6FF7077
:102D000000EA841408460088204408809DF80540A5
:102D1000A41008460088204408800846008842F233
:102D20001071884202DC00200649088004480088AF
:102D300042F21071884202DC0020014908801CBD6B
:102D40002A0000202C0000202DE9FC4104460D46FD
:102D5000CDE90045019800F0004080B120462946A9
:102D6000FDF76AFC8046FDF72FFC07464FF07E51C9
:102D7000FDF72CFA0646FDF77EFCBDE8FC812046F7
:102D80002946FDF759FC0746FDF71EFC0646FDF7F0
:102D900072FCF2E72DE9FC5F06460F4614461D461D
:102DA0000022134620462946FDF778FC03D1002077
:102DB0000146BDE8FC9F22462B4630463946FDF7CA
:102DC00094FB8246FFF7C0FFCDE9000122462B4667
:102DD000DDE90001FDF717FB824632463B46FDF771
:102DE0000FFB804689460022134630463946FDF7E0
:102DF00055FC02D24FF0010A01E04FF0000A002218
:102E0000134620462946FDF749FC01D2012000E087
:102E10000020824507D022462B4640464946FDF712
:102E2000ECFA8046894640464946C2E770B50546F9
:102E3000FDF739FD044620F00040C0F1FF40C00F0F
:102E400008D025F00040C0F1FF40C00F04BF0120B2
:102E5000FEF7D0FE204670BD00000000000000001C
:102E60000000000000000000000000F8000000006A
:102E7000000000330000000000100C02100C0200E3
:102E800000000000000000000040C07840C0780052
:102E900000043F04043F040000708888FC083000F0
:102EA00000182020FF211E00F008F08060180000AC
:102EB00000310C031E211E0000F008887000000085
:102EC0001E21232C1927211000120E0000000000E3
:102ED0000000000000000000000000E018040200F4
:102EE000000000071820400000020418E000000065
:102EF0000040201807000000404080F08040400063
:102F00000202010F0102020000000000E0000000C8
:102F1000000101010F01010100000000000000009C
:102F200000907000000000000000000000000000A1
:102F3000000101010101010000000000000000008B
:102F4000003030000000000000000000C038040025
:102F5000006018070000000000E010080810E00002
:102F6000000F102020100F0000001010F8000000CB
:102F7000000020203F202000007008080808F00012
:102F80000030282422213000003008080888700012
:102F90000018202121221C000000804030F8000091
:102FA00000060524243F242400F8888888080800A7
:102FB0000019202020110E0000E0108888900000E9
:102FC000000F112020201F00001808088868180032
:102FD0000000003E010000000070880808887000B2
:102FE000001C222121221C0000F008080810E0002B
:102FF0000001122222110F00000000C0C0000000DA
:1030000000000030300000000000008000000000E0
:10301000000000E0000000000000804020100800D8
:1030200000010204081020000040404040404000E1
:10303000000202020202020000081020408000008C
:103040000020100804020100007048080888700081
:103050000000003037000000C030C828E810E00051
:10306000071827282F2817000000C038E0000000AC
:10307000203C23020227382008F888888870000046
:10308000203F202020110E00C0300808080838001A
:10309000071820202010080008F808080810E00091
:1030A000203F202020100F0008F88888E808100032
:1030B000203F20202320180008F88888E808100006
:1030C000203F200003000000C0300808083800003E
:1030D00007182020221E020008F808000008F8083F
:1030E000203F210101213F20000808F808080000C6
:1030F0000020203F2020000000000808F8080800F9
:10310000C08080807F00000008F888C02818080070
:10311000203F20012638200008F8080000000000A9
:10312000203F20202020300008F8F800F8F80800A0
:10313000203F013E013F200008F830C00008F80899
:10314000203F200007183F00E01008080810E000AA
:103150000F10202020100F0008F808080808F000C1
:10316000203F210101010000E01008080810E000E4
:103170000F10282830504F0008F888888888700081
:10318000203F2000030C3020007088080808380019
:103190000038202121221C00180808F8080818000F
:1031A0000000203F2000000008F808000008F80890
:1031B000001F202020201F000878880000C8380841
:1031C000000007380E01000008F800F800F80800B9
:1031D00000033E013E03000008186880806818085C
:1031E00020302C03032C30200838C800C8380800D1
:1031F0000000203F2000000010080808C838080020
:103200002038262120201800000000FE02020200C3
:103210000000007F40404000000438C00000000073
:10322000000000010638C00000020202FE0000009B
:10323000004040407F000000000004020204000043
:10324000000000000000000000000000000000007E
:103250008080808080808080000202040000000066
:1032600000000000000000000000808080000000DE
:1032700000192424123F200010F00080800000007C
:10328000003F112020110E0000000080808000000F
:10329000000E112020201100000080808090F0009E
:1032A000001F202020103F20000080808080000030
:1032B000001F242424241700008080E09090200028
:1032C0000020203F202000000000808080808000BF
:1032D000006B94949493600010F000808080000054
:1032E000203F210000203F2000809898000000002F
:1032F0000020203F2020000000000080989800005F
:1033000000C08080807F000010F00000808080007E
:10331000203F240629302000001010F80000000093
:103320000020203F2020000080808080808080005E
:10333000203F20003F20003F8080008080800000F0
:10334000203F210000203F2000008080808000007E
:10335000001F202020201F008080008080000000AF
:1033600080FF912020110E0000000080800080006E
:10337000000E11202091FF808080800080808000DE
:1033800020203F21200001000000808080808000FC
:103390000033242424241900008080E08080000071
:1033A0000000001F202010008080000000808000AE
:1033B000001F202020103F2080808000808080001F
:1033C00000030C300C0300008080008080008080AF
:1033D000010E300C073806010080808000808000DC
:1033E0000020310E2E3120008080800000808080FF
:1033F000008186781806010000808080808080002F
:103400000021302C222130000000000000FC0202CC
:1034100000000000013E404000000000FF000000EE
:1034200000000000FF0000000202FC00000000009D
:1034300040403E01000000000002010202040200C0
:10344000000000000000000000000000000000007C
:103450006F0EA6389415903F6058F72D1215A03FB7
:10346000AB047532561EA83F7993E01B0A13B03F98
:10347000498E3932E515B43FF017FC7F7B17B83F12
:10348000DA97623D8C17BC3FE05BA15DEB0AC03F61
:10349000E9AA91330D09C23F7553A8670B06C43FD3
:1034A0006C2377D3C501C63F797A03651CFCC73FFF
:1034B000A3DDCC20EFF4C93F6A1FD2231EECCB3F23
:1034C000CCFB94A589E1CD3F96071CFA11D5CF3FDF
:1034D0004769F9C94BE3D03F0E0E1483FDDAD13FA3
:1034E0001FFD24838ED1D23F4FE92F37EFC6D33F44
:1034F000FB02711F10BBD43FDD9657D0E1ADD53F25
:103500004B667FF3549FD63F19A9A8485A8FD73FDF
:1035100063A9AEA6E27DD83FC2E97CFCDE6AD93F52
:1035200063C602524056DA3F9D8125C9F73FDB3F13
:10353000C3ACB09EF627DC3F01DE442B2E0EDD3FF0
:103540001FA444E48FF2DD3F52A9BF5C0DD5DE3FDE
:1035500024F65B4698B5DF3FE4A21E39114AE03FEE
:103560009C2EF5E84EB8E03F512B183C7E25E13FFC
:103570005CE9014D9891E13FEA00B04796FCE13FDC
:1035800057BB116A7166E23F5E5A750423CFE23F72
:103590004136F479A436E33F0BACDD40EF9CE33FCA
:1035A0002AD520E3FC01E43FBC01B5FEC665E43F3B
:1035B000EFEE004647C8E43FECB240807729E53F94
:1035C000F057EA895189E53F14201155CFE7E53FCF
:1035D000A66BC7E9EA44E63FCD3B7F669EA0E63F87
:1035E000664B6900E4FAE63F16B8D203B653E73FEC
:1035F000A53581D40EABE73FDCC50DEEE800E83F12
:1036000014EF3DE43E55E83FEA6B5B630BA8E83FEF
:10361000844E8A3049F9E83FF2911D2AF348E93F88
:103620005714EA470497E93FA8F4979B77E3E93FEB
:10363000C94EF250482EEA3F095135AE7177EA3F44
:1036400017A65A14EFBEEA3F862E64FFBB04EB3F79
:103650004005A506D448EB3F3CCA08DD328BEB3F62
:10366000F72E5951D4CBEB3F5AC0814EB40AEC3FF0
:10367000A7E9D1DBCE47EC3F6C2C3D1D2083EC3F0E
:1036800045899953A4BCEC3F8C15DCDC57F4EC3F26
:1036900031BA5334372AED3FED17E2F23E5EED3F8B
:1036A000468D32CF6B90ED3FE55AEF9DBAC0ED3FAE
:1036B000E3E2F45128EFED3FD8FF82FCB11BEE3F6F
:1036C0007E706CCD5446EE3FFF5444130E6FEE3FB8
:1036D000F5BA893BDB95EE3F7235D1D2B9BAEE3FF0
:1036E000667EEC84A7DDEE3FE01E101DA2FEEE3FDD
:1036F000CF1BF785A71DEF3FF8A404CAB53AEF3FEB
:1037000014C46313CB55EF3FFF0925ACE56EEF3FC3
:1037100021385AFE0386EF3F5CE42F94249BEF3F51
:10372000D015051846AEEF3F03D9805467BFEF3F71
:1037300003CAA53487CEEF3F5C93E3C3A4DBEF3F1E
:10374000AF60262EBFE6EF3FFE43E4BFD5EFEF3F6D
:10375000D38C28E6E7F6EF3F86109D2EF5FBEF3F72
:1037600012639147FDFEEF3F000000000000F03FB4
:10377000BDE1CAF8464654CBE3B7A82A2A2A2A2A2A
:103780002A2A2A2A2A2A2A2A2A2A2A2A2A2A2A2A99
:103790002A2A2A2A2A2A2A2A2A2A2A2A2A2A2A2A89
:1037A0002A2A2A2A2A2A2A2A2A2A2A2A2A2A2A2A79
:1037B0002A2A2A2A2A2A2A2A2A2A2A2A2A2A2A2A69
:1037C0002A2A2A2A2A2A2A2A2A2A2A2A2A2A2A2A59
:1037D0002A2A2A2A2A2A2A2A2A2A2A2A2A2A2A2A49
:1037E0002A2A2A2A2A2A2A2A2A2A0D0A000000001E
:1037F000BFAACABC464654CBE3B7A82A2A2A2A2A1B
:103800002A2A2A2A2A2A2A2A2A2A2A2A2A2A2A2A18
:103810002A2A2A2A2A2A2A2A2A2A2A2A2A2A2A2A08
:103820002A2A2A2A2A2A2A2A2A2A2A2A2A2A2A2AF8
:103830002A2A2A2A2A2A2A2A2A2A2A2A2A2A2A2AE8
:103840002A2A2A2A2A2A2A2A2A2A2A2A2A2A2A2AD8
:103850002A2A2A2A2A2A2A2A2A2A2A2A2A2A2A0DE5
:103860000A0000002A2A2A2A2A2A2A2A2A2A2A2A56
:103870002A2A2A2A2A2A2A2A2A2A2A2A2A2A2A2AA8
:103880002A2A2A2A2A2A2A2A2A2A2A2A2A2A2A2A98
:103890002A2A2A2A2A2A2A2A2A2A2A2A2A2A2A2A88
:1038A0002A2A2A2A2A2A2A2A2A2A2A2A2A2A2A2A78
:1038B0002A2A2A2A2A2A2A2A2A2A2A2A2A2A2A2A68
:1038C0002A2A2A2A2A2A0D0A000000002A2A2A2A3D
:1038D0002A2A2A2A2A2A2A2A2A2A2A2A2A2A2A2A48
:1038E0002A2A2A2A2A2A2A2A2A2A2A2A2A2A2A2A38
:1038F0002A2A2A2A2A2A2A2A2A2A2A2A2A2A2A2A28
:103900002A2A2A2A2A2A2A2A2A2A2A2A2A2A2A2A17
:103910002A2A2A2A2A2A2A2A2A2A2A2A2A2A2A2A07
:103920002A2A2A2A0D0A00002A2A2A2A2A2A2A2A88
:103930002A2A2A2A38207074204D6F76696E6720F3
:10394000417665726167652069722A2A2A2A2A2AC5
:103950002A2A2A2A2A2A2A2A2A2A2A2A2A2A2A2AC7
:103960002A2A2A2A2A2A2A2A2A2A2A2A2A2A2A2AB7
:103970002A2A2A2A2A2A2A2A2A2A2A2A2A2A2A2AA7
:103980002A2A2A2A2A2A2A0D0A0000002A2A2A2A52
:103990002A2A2A2A2A2A2A38207074204D6F76690A
:1039A0006E672041766572616765207265642A2AB8
:1039B0002A2A2A2A2A2A2A2A2A2A2A2A2A2A2A2A67
:1039C0002A2A2A2A2A2A2A2A2A2A2A2A2A2A2A2A57
:1039D0002A2A2A2A2A2A2A2A2A2A2A2A2A2A2A2A47
:1039E0002A2A2A2A0D0A0000083A000800000020AE
:1039F0004C000000D41B0008543A00084C00002082
:103A000004250000E41B000800A24A040000000096
:103A1000000000000102030406070809000000007E
:103A20000102030401020304060708090204060850
:103A30000000000000000000000000000000000086
:103A40000000000000000000000000000000000076
:043A50000000000072
:04000005080000ED02
:00000001FF
